{
  "address": "0x41A46a6510F2B6a347b947e635172fD74DbF625f",
  "abi": [
    {
      "inputs": [
        {
          "internalType": "address",
          "name": "_eas",
          "type": "address"
        },
        {
          "internalType": "address",
          "name": "_schemaRegistry",
          "type": "address"
        },
        {
          "internalType": "string",
          "name": "_NFTName",
          "type": "string"
        },
        {
          "internalType": "string",
          "name": "_NFTSymbol",
          "type": "string"
        }
      ],
      "stateMutability": "nonpayable",
      "type": "constructor"
    },
    {
      "anonymous": false,
      "inputs": [
        {
          "indexed": true,
          "internalType": "address",
          "name": "owner",
          "type": "address"
        },
        {
          "indexed": true,
          "internalType": "address",
          "name": "approved",
          "type": "address"
        },
        {
          "indexed": true,
          "internalType": "uint256",
          "name": "tokenId",
          "type": "uint256"
        }
      ],
      "name": "Approval",
      "type": "event"
    },
    {
      "anonymous": false,
      "inputs": [
        {
          "indexed": true,
          "internalType": "address",
          "name": "owner",
          "type": "address"
        },
        {
          "indexed": true,
          "internalType": "address",
          "name": "operator",
          "type": "address"
        },
        {
          "indexed": false,
          "internalType": "bool",
          "name": "approved",
          "type": "bool"
        }
      ],
      "name": "ApprovalForAll",
      "type": "event"
    },
    {
      "anonymous": false,
      "inputs": [
        {
          "indexed": true,
          "internalType": "address",
          "name": "from",
          "type": "address"
        },
        {
          "indexed": true,
          "internalType": "address",
          "name": "to",
          "type": "address"
        },
        {
          "indexed": true,
          "internalType": "uint256",
          "name": "tokenId",
          "type": "uint256"
        }
      ],
      "name": "Transfer",
      "type": "event"
    },
    {
      "inputs": [
        {
          "internalType": "address",
          "name": "to",
          "type": "address"
        },
        {
          "internalType": "uint256",
          "name": "tokenId",
          "type": "uint256"
        }
      ],
      "name": "approve",
      "outputs": [],
      "stateMutability": "nonpayable",
      "type": "function"
    },
    {
      "inputs": [
        {
          "internalType": "address",
          "name": "owner",
          "type": "address"
        }
      ],
      "name": "balanceOf",
      "outputs": [
        {
          "internalType": "uint256",
          "name": "",
          "type": "uint256"
        }
      ],
      "stateMutability": "view",
      "type": "function"
    },
    {
      "inputs": [],
      "name": "baseTokenURI",
      "outputs": [
        {
          "internalType": "string",
          "name": "",
          "type": "string"
        }
      ],
      "stateMutability": "view",
      "type": "function"
    },
    {
      "inputs": [
        {
          "internalType": "uint256",
          "name": "nftId",
          "type": "uint256"
        }
      ],
      "name": "burn",
      "outputs": [],
      "stateMutability": "nonpayable",
      "type": "function"
    },
    {
      "inputs": [
        {
          "internalType": "uint256",
          "name": "nftId",
          "type": "uint256"
        },
        {
          "internalType": "uint8",
          "name": "contributionType",
          "type": "uint8"
        }
      ],
      "name": "contributionAmounts",
      "outputs": [
        {
          "internalType": "uint256",
          "name": "amount",
          "type": "uint256"
        }
      ],
      "stateMutability": "view",
      "type": "function"
    },
    {
      "inputs": [],
      "name": "contributionDecayTime",
      "outputs": [
        {
          "internalType": "uint256",
          "name": "",
          "type": "uint256"
        }
      ],
      "stateMutability": "view",
      "type": "function"
    },
    {
      "inputs": [
        {
          "internalType": "uint256",
          "name": "nftId",
          "type": "uint256"
        },
        {
          "internalType": "uint8",
          "name": "contributionType",
          "type": "uint8"
        }
      ],
      "name": "contributionTimestamps",
      "outputs": [
        {
          "internalType": "uint256",
          "name": "timestamp",
          "type": "uint256"
        }
      ],
      "stateMutability": "view",
      "type": "function"
    },
    {
      "inputs": [],
      "name": "eas",
      "outputs": [
        {
          "internalType": "address",
          "name": "",
          "type": "address"
        }
      ],
      "stateMutability": "view",
      "type": "function"
    },
    {
      "inputs": [
        {
          "internalType": "uint256",
          "name": "tokenId",
          "type": "uint256"
        }
      ],
      "name": "getApproved",
      "outputs": [
        {
          "internalType": "address",
          "name": "",
          "type": "address"
        }
      ],
      "stateMutability": "view",
      "type": "function"
    },
    {
      "inputs": [
        {
          "internalType": "uint256",
          "name": "nftId",
          "type": "uint256"
        },
        {
          "internalType": "uint8",
          "name": "contributionTypeId",
          "type": "uint8"
        }
      ],
      "name": "getContribution",
      "outputs": [
        {
          "internalType": "uint256",
          "name": "",
          "type": "uint256"
        }
      ],
      "stateMutability": "view",
      "type": "function"
    },
    {
      "inputs": [
        {
          "internalType": "uint256",
          "name": "nftId",
          "type": "uint256"
        },
        {
          "internalType": "uint8[]",
          "name": "contributionTypeIds",
          "type": "uint8[]"
        }
      ],
      "name": "getContributions",
      "outputs": [
        {
          "internalType": "uint256[]",
          "name": "",
          "type": "uint256[]"
        }
      ],
      "stateMutability": "view",
      "type": "function"
    },
    {
      "inputs": [],
      "name": "getEAS",
      "outputs": [
        {
          "internalType": "address",
          "name": "",
          "type": "address"
        }
      ],
      "stateMutability": "view",
      "type": "function"
    },
    {
      "inputs": [
        {
          "internalType": "address",
          "name": "owner",
          "type": "address"
        },
        {
          "internalType": "address",
          "name": "operator",
          "type": "address"
        }
      ],
      "name": "isApprovedForAll",
      "outputs": [
        {
          "internalType": "bool",
          "name": "",
          "type": "bool"
        }
      ],
      "stateMutability": "view",
      "type": "function"
    },
    {
      "inputs": [],
      "name": "maxContributionAmount",
      "outputs": [
        {
          "internalType": "uint8",
          "name": "",
          "type": "uint8"
        }
      ],
      "stateMutability": "view",
      "type": "function"
    },
    {
      "inputs": [
        {
          "internalType": "address",
          "name": "to",
          "type": "address"
        }
      ],
      "name": "mint",
      "outputs": [],
      "stateMutability": "nonpayable",
      "type": "function"
    },
    {
      "inputs": [
        {
          "internalType": "uint256[]",
          "name": "_nftIds",
          "type": "uint256[]"
        },
        {
          "internalType": "uint8[]",
          "name": "_contributionTypeIds",
          "type": "uint8[]"
        },
        {
          "internalType": "uint8[]",
          "name": "_contributionAmounts",
          "type": "uint8[]"
        },
        {
          "internalType": "string[]",
          "name": "_descriptions",
          "type": "string[]"
        }
      ],
      "name": "multiSetContribution",
      "outputs": [],
      "stateMutability": "nonpayable",
      "type": "function"
    },
    {
      "inputs": [
        {
          "internalType": "uint256[]",
          "name": "_nftIds",
          "type": "uint256[]"
        },
        {
          "internalType": "uint8[]",
          "name": "_contributionTypeIds",
          "type": "uint8[]"
        },
        {
          "internalType": "uint8[]",
          "name": "_contributionAmounts",
          "type": "uint8[]"
        }
      ],
      "name": "multiSetContributionLean",
      "outputs": [],
      "stateMutability": "nonpayable",
      "type": "function"
    },
    {
      "inputs": [],
      "name": "name",
      "outputs": [
        {
          "internalType": "string",
          "name": "",
          "type": "string"
        }
      ],
      "stateMutability": "view",
      "type": "function"
    },
    {
      "inputs": [
        {
          "internalType": "address",
          "name": "",
          "type": "address"
        }
      ],
      "name": "operators",
      "outputs": [
        {
          "internalType": "bool",
          "name": "",
          "type": "bool"
        }
      ],
      "stateMutability": "view",
      "type": "function"
    },
    {
      "inputs": [
        {
          "internalType": "uint256",
          "name": "tokenId",
          "type": "uint256"
        }
      ],
      "name": "ownerOf",
      "outputs": [
        {
          "internalType": "address",
          "name": "",
          "type": "address"
        }
      ],
      "stateMutability": "view",
      "type": "function"
    },
    {
      "inputs": [],
      "name": "registrySchema",
      "outputs": [],
      "stateMutability": "nonpayable",
      "type": "function"
    },
    {
      "inputs": [
        {
          "internalType": "bytes32",
          "name": "attestationID",
          "type": "bytes32"
        }
      ],
      "name": "revokeAttestation",
      "outputs": [],
      "stateMutability": "nonpayable",
      "type": "function"
    },
    {
      "inputs": [
        {
          "internalType": "address",
          "name": "from",
          "type": "address"
        },
        {
          "internalType": "address",
          "name": "to",
          "type": "address"
        },
        {
          "internalType": "uint256",
          "name": "tokenId",
          "type": "uint256"
        }
      ],
      "name": "safeTransferFrom",
      "outputs": [],
      "stateMutability": "nonpayable",
      "type": "function"
    },
    {
      "inputs": [
        {
          "internalType": "address",
          "name": "from",
          "type": "address"
        },
        {
          "internalType": "address",
          "name": "to",
          "type": "address"
        },
        {
          "internalType": "uint256",
          "name": "tokenId",
          "type": "uint256"
        },
        {
          "internalType": "bytes",
          "name": "data",
          "type": "bytes"
        }
      ],
      "name": "safeTransferFrom",
      "outputs": [],
      "stateMutability": "nonpayable",
      "type": "function"
    },
    {
      "inputs": [],
      "name": "schemaID",
      "outputs": [
        {
          "internalType": "bytes32",
          "name": "",
          "type": "bytes32"
        }
      ],
      "stateMutability": "view",
      "type": "function"
    },
    {
      "inputs": [],
      "name": "schemaRegistry",
      "outputs": [
        {
          "internalType": "address",
          "name": "",
          "type": "address"
        }
      ],
      "stateMutability": "view",
      "type": "function"
    },
    {
      "inputs": [
        {
          "internalType": "address",
          "name": "operator",
          "type": "address"
        },
        {
          "internalType": "bool",
          "name": "approved",
          "type": "bool"
        }
      ],
      "name": "setApprovalForAll",
      "outputs": [],
      "stateMutability": "nonpayable",
      "type": "function"
    },
    {
      "inputs": [
        {
          "internalType": "string",
          "name": "baseURI",
          "type": "string"
        }
      ],
      "name": "setBaseURI",
      "outputs": [],
      "stateMutability": "nonpayable",
      "type": "function"
    },
    {
      "inputs": [
        {
          "internalType": "uint256",
          "name": "nftId",
          "type": "uint256"
        },
        {
          "internalType": "uint8",
          "name": "contributionTypeId",
          "type": "uint8"
        },
        {
          "internalType": "uint8",
          "name": "contributionAmount",
          "type": "uint8"
        },
        {
          "internalType": "string",
          "name": "description",
          "type": "string"
        }
      ],
      "name": "setContribution",
      "outputs": [
        {
          "internalType": "bytes32",
          "name": "",
          "type": "bytes32"
        }
      ],
      "stateMutability": "nonpayable",
      "type": "function"
    },
    {
      "inputs": [
        {
          "internalType": "uint256",
          "name": "_contributionDecayTime",
          "type": "uint256"
        }
      ],
      "name": "setContributionDecayTime",
      "outputs": [],
      "stateMutability": "nonpayable",
      "type": "function"
    },
    {
      "inputs": [
        {
          "internalType": "uint256",
          "name": "nftId",
          "type": "uint256"
        },
        {
          "internalType": "uint8",
          "name": "contributionTypeId",
          "type": "uint8"
        },
        {
          "internalType": "uint8",
          "name": "contributionAmount",
          "type": "uint8"
        }
      ],
      "name": "setContributionLean",
      "outputs": [
        {
          "internalType": "bytes32",
          "name": "",
          "type": "bytes32"
        }
      ],
      "stateMutability": "nonpayable",
      "type": "function"
    },
    {
      "inputs": [
        {
          "internalType": "uint256",
          "name": "id",
          "type": "uint256"
        },
        {
          "internalType": "string",
          "name": "name",
          "type": "string"
        }
      ],
      "name": "setContributionType",
      "outputs": [],
      "stateMutability": "nonpayable",
      "type": "function"
    },
    {
      "inputs": [
        {
          "internalType": "address",
          "name": "_eas",
          "type": "address"
        }
      ],
      "name": "setEAS",
      "outputs": [],
      "stateMutability": "nonpayable",
      "type": "function"
    },
    {
      "inputs": [
        {
          "internalType": "uint8",
          "name": "_maxContributionAmount",
          "type": "uint8"
        }
      ],
      "name": "setMaxContributionAmount",
      "outputs": [],
      "stateMutability": "nonpayable",
      "type": "function"
    },
    {
      "inputs": [
        {
          "internalType": "address",
          "name": "operator",
          "type": "address"
        },
        {
          "internalType": "bool",
          "name": "value",
          "type": "bool"
        }
      ],
      "name": "setOperator",
      "outputs": [],
      "stateMutability": "nonpayable",
      "type": "function"
    },
    {
      "inputs": [
        {
          "internalType": "bytes32",
          "name": "_schemaID",
          "type": "bytes32"
        }
      ],
      "name": "setSchemaID",
      "outputs": [],
      "stateMutability": "nonpayable",
      "type": "function"
    },
    {
      "inputs": [
        {
          "internalType": "address",
          "name": "_schemaRegistry",
          "type": "address"
        }
      ],
      "name": "setSchemaRegistry",
      "outputs": [],
      "stateMutability": "nonpayable",
      "type": "function"
    },
    {
      "inputs": [
        {
          "internalType": "bytes4",
          "name": "interfaceId",
          "type": "bytes4"
        }
      ],
      "name": "supportsInterface",
      "outputs": [
        {
          "internalType": "bool",
          "name": "",
          "type": "bool"
        }
      ],
      "stateMutability": "view",
      "type": "function"
    },
    {
      "inputs": [],
      "name": "symbol",
      "outputs": [
        {
          "internalType": "string",
          "name": "",
          "type": "string"
        }
      ],
      "stateMutability": "view",
      "type": "function"
    },
    {
      "inputs": [],
      "name": "tokenCount",
      "outputs": [
        {
          "internalType": "uint256",
          "name": "",
          "type": "uint256"
        }
      ],
      "stateMutability": "view",
      "type": "function"
    },
    {
      "inputs": [
        {
          "internalType": "uint256",
          "name": "tokenId",
          "type": "uint256"
        }
      ],
      "name": "tokenURI",
      "outputs": [
        {
          "internalType": "string",
          "name": "",
          "type": "string"
        }
      ],
      "stateMutability": "view",
      "type": "function"
    },
    {
      "inputs": [
        {
          "internalType": "address",
          "name": "from",
          "type": "address"
        },
        {
          "internalType": "address",
          "name": "to",
          "type": "address"
        },
        {
          "internalType": "uint256",
          "name": "tokenId",
          "type": "uint256"
        }
      ],
      "name": "transferFrom",
      "outputs": [],
      "stateMutability": "nonpayable",
      "type": "function"
    }
  ],
  "transactionHash": "0x96095fb531b21aae4a35e3820700acec98f9e6393c7a4443744f0342047d532a",
  "args": [
    "0x4200000000000000000000000000000000000021",
    "0x4200000000000000000000000000000000000020",
    "Contributions NFT",
    "CNFT"
  ],
  "numDeployments": 1,
  "solcInputHash": "0782f429b2d2f8fa5a76532b72c4854c",
  "bytecode": "0x6080604052600680546001600160a01b03199081167342000000000000000000000000000000000000211790915560078054909116734200000000000000000000000000000000000020179055603c600955600a805460ff191660051790553480156200006b57600080fd5b5060405162002eb238038062002eb28339810160408190526200008e91620001e7565b818160006200009e838262000308565b506001620000ad828262000308565b5050600680546001600160a01b039687166001600160a01b03199182161790915560078054959096169416939093179093555050336000908152600c60205260409020805460ff1916600117905550620003d4565b80516001600160a01b03811681146200011a57600080fd5b919050565b634e487b7160e01b600052604160045260246000fd5b600082601f8301126200014757600080fd5b81516001600160401b03808211156200016457620001646200011f565b604051601f8301601f19908116603f011681019082821181831017156200018f576200018f6200011f565b8160405283815260209250866020858801011115620001ad57600080fd5b600091505b83821015620001d15785820183015181830184015290820190620001b2565b6000602085830101528094505050505092915050565b60008060008060808587031215620001fe57600080fd5b620002098562000102565b9350620002196020860162000102565b60408601519093506001600160401b03808211156200023757600080fd5b620002458883890162000135565b935060608701519150808211156200025c57600080fd5b506200026b8782880162000135565b91505092959194509250565b600181811c908216806200028c57607f821691505b602082108103620002ad57634e487b7160e01b600052602260045260246000fd5b50919050565b601f82111562000303576000816000526020600020601f850160051c81016020861015620002de5750805b601f850160051c820191505b81811015620002ff57828155600101620002ea565b5050505b505050565b81516001600160401b038111156200032457620003246200011f565b6200033c8162000335845462000277565b84620002b3565b602080601f8311600181146200037457600084156200035b5750858301515b600019600386901b1c1916600185901b178555620002ff565b600085815260208120601f198616915b82811015620003a55788860151825594840194600190910190840162000384565b5085821015620003c45787850151600019600388901b60f8161c191681555b5050505050600190811b01905550565b612ace80620003e46000396000f3fe608060405234801561001057600080fd5b506004361061025e5760003560e01c80636352211e11610146578063a22cb465116100c3578063d135323d11610087578063d135323d1461056d578063d2cae4a014610598578063d547cfb7146105ab578063e985e9c5146105b3578063fd1308a6146105ef578063fdba8497146105f857600080fd5b8063a22cb4651461050e578063b88d4fde14610521578063c051f75f14610534578063c87b56dd14610547578063c8c8e1d01461055a57600080fd5b806371d82aee1161010a57806371d82aee146104cf5780638150864d146104d7578063833d1f55146104ea57806395d89b41146104fd5780639f181b5e1461050557600080fd5b80636352211e1461045a578063642af1851461046d57806365c40b9c146104985780636a627842146104a957806370a08231146104bc57600080fd5b80632c9de755116101df5780634aa8fe39116101a35780634aa8fe39146103e85780634d5e1da6146103fb5780634fdef3901461040e578063558a72971461042157806355f804b3146104345780635ff96d111461044757600080fd5b80632c9de7551461037c57806342842e0e1461038f57806342966c68146103a25780634441bbd9146103b557806345795986146103c857600080fd5b806313e7c9d81161022657806313e7c9d8146103015780631714d9831461032457806319cc1ec4146103375780631fff9bb51461035657806323b872dd1461036957600080fd5b806301ffc9a7146102635780630435bd581461028b57806306fdde03146102ac578063081812fc146102c1578063095ea7b3146102ec575b600080fd5b610276610271366004611e38565b610601565b60405190151581526020015b60405180910390f35b61029e610299366004611f28565b610653565b604051908152602001610282565b6102b4610870565b6040516102829190611fdf565b6102d46102cf366004611ff2565b610902565b6040516001600160a01b039091168152602001610282565b6102ff6102fa366004612022565b610929565b005b61027661030f36600461204c565b600c6020526000908152604090205460ff1681565b6102ff61033236600461215f565b610a3e565b600a546103449060ff1681565b60405160ff9091168152602001610282565b61029e610364366004612278565b610af9565b6102ff6103773660046122a4565b610b76565b61029e61038a3660046122e0565b610ba7565b6102ff61039d3660046122a4565b610db6565b6102ff6103b0366004611ff2565b610dd1565b6007546102d4906001600160a01b031681565b6103db6103d636600461231c565b610e0c565b6040516102829190612362565b6102ff6103f63660046123a6565b610eb1565b6102ff610409366004611ff2565b610f51565b6102ff61041c36600461242d565b611013565b6102ff61042f366004612469565b61105a565b6102ff6104423660046124a5565b6110b4565b6102ff610455366004611ff2565b6110f3565b6102d4610468366004611ff2565b611127565b61029e61047b366004612278565b600e60209081526000928352604080842090915290825290205481565b6006546001600160a01b03166102d4565b6102ff6104b736600461204c565b611187565b61029e6104ca36600461204c565b6111dc565b6102ff611262565b6006546102d4906001600160a01b031681565b6102ff6104f83660046124d9565b61137f565b6102b46113c4565b61029e600b5481565b6102ff61051c366004612469565b6113d3565b6102ff61052f3660046124f4565b6113de565b6102ff61054236600461204c565b611410565b6102b4610555366004611ff2565b611461565b6102ff610568366004611ff2565b6114c8565b61029e61057b366004612278565b600f60209081526000928352604080842090915290825290205481565b6102ff6105a636600461204c565b6114fc565b6102b461154d565b6102766105c1366004612563565b6001600160a01b03918216600090815260056020908152604080832093909416825291909152205460ff1690565b61029e60085481565b61029e60095481565b60006001600160e01b031982166380ac58cd60e01b148061063257506001600160e01b03198216635b5e139f60e01b145b8061064d57506301ffc9a760e01b6001600160e01b03198316145b92915050565b336000908152600c602052604081205460ff1661068b5760405162461bcd60e51b81526004016106829061258d565b60405180910390fd5b600a5460ff90811690841611156106e45760405162461bcd60e51b815260206004820152601b60248201527f496e76616c696420636f6e747269627574696f6e20616d6f756e7400000000006044820152606401610682565b8260ff166106f28686610af9565b6106fc91906125d3565b6000868152600f6020908152604080832060ff808a1680865291845282852095909555898452600e83528184209084529091528120429055600954909161074691908616906125e6565b61075090426125d3565b905060003387601060008960ff16815260200190815260200160002087876040516020016107829594939291906126b4565b60408051601f1981840301815260065483830183526008548452825160c081019093529093506001600160a01b03169163f17325e7916020820190806107c78d611127565b6001600160a01b03168152602001876001600160401b031681526020016001151581526020016000801b815260200186815260200160008152508152506040518263ffffffff1660e01b815260040161082091906126f6565b6020604051808303816000875af115801561083f573d6000803e3d6000fd5b505050506040513d601f19601f820116820180604052508101906108639190612778565b925050505b949350505050565b60606000805461087f906125fd565b80601f01602080910402602001604051908101604052809291908181526020018280546108ab906125fd565b80156108f85780601f106108cd576101008083540402835291602001916108f8565b820191906000526020600020905b8154815290600101906020018083116108db57829003601f168201915b5050505050905090565b600061090d826115db565b506000908152600460205260409020546001600160a01b031690565b600061093482611127565b9050806001600160a01b0316836001600160a01b0316036109a15760405162461bcd60e51b815260206004820152602160248201527f4552433732313a20617070726f76616c20746f2063757272656e74206f776e656044820152603960f91b6064820152608401610682565b336001600160a01b03821614806109bd57506109bd81336105c1565b610a2f5760405162461bcd60e51b815260206004820152603d60248201527f4552433732313a20617070726f76652063616c6c6572206973206e6f7420746f60448201527f6b656e206f776e6572206f7220617070726f76656420666f7220616c6c0000006064820152608401610682565b610a39838361163a565b505050565b336000908152600c602052604090205460ff16610a6d5760405162461bcd60e51b81526004016106829061258d565b60005b8451811015610af257610ae9858281518110610a8e57610a8e612791565b6020026020010151858381518110610aa857610aa8612791565b6020026020010151858481518110610ac257610ac2612791565b6020026020010151858581518110610adc57610adc612791565b6020026020010151610653565b50600101610a70565b5050505050565b6000828152600e6020908152604080832060ff851680855290835281842054868552600f8452828520918552925282205482610b3583426127a7565b9050600060095482610b4791906127ba565b905080831015610b5e57600094505050505061064d565b6000610b6a82856127a7565b98975050505050505050565b610b8033826116a8565b610b9c5760405162461bcd60e51b8152600401610682906127dc565b610a39838383611726565b336000908152600c602052604081205460ff16610bd65760405162461bcd60e51b81526004016106829061258d565b600a5460ff9081169083161115610c2f5760405162461bcd60e51b815260206004820152601b60248201527f496e76616c696420636f6e747269627574696f6e20616d6f756e7400000000006044820152606401610682565b8160ff16610c3d8585610af9565b610c4791906125d3565b6000858152600f6020908152604080832060ff80891680865291845282852095909555888452600e835281842090845290915281204290556009549091610c9191908516906125e6565b610c9b90426125d3565b905060003386601060008860ff16815260200190815260200160002086604051602001610ccb9493929190612829565b60408051601f1981840301815260065483830183526008548452825160c081019093529093506001600160a01b03169163f17325e791602082019080610d108c611127565b6001600160a01b03168152602001876001600160401b031681526020016001151581526020016000801b815260200186815260200160008152508152506040518263ffffffff1660e01b8152600401610d6991906126f6565b6020604051808303816000875af1158015610d88573d6000803e3d6000fd5b505050506040513d601f19601f82011682018060405250810190610dac9190612778565b9695505050505050565b610a39838383604051806020016040528060008152506113de565b336000908152600c602052604090205460ff16610e005760405162461bcd60e51b81526004016106829061258d565b610e098161188a565b50565b6060600082516001600160401b03811115610e2957610e29611e6b565b604051908082528060200260200182016040528015610e52578160200160208202803683370190505b50905060005b8351811015610ea957610e8485858381518110610e7757610e77612791565b6020026020010151610af9565b828281518110610e9657610e96612791565b6020908102919091010152600101610e58565b509392505050565b336000908152600c602052604090205460ff16610ee05760405162461bcd60e51b81526004016106829061258d565b60005b8351811015610f4b57610f42848281518110610f0157610f01612791565b6020026020010151848381518110610f1b57610f1b612791565b6020026020010151848481518110610f3557610f35612791565b6020026020010151610ba7565b50600101610ee3565b50505050565b336000908152600c602052604090205460ff16610f805760405162461bcd60e51b81526004016106829061258d565b60065460408051808201825260085481528151808301835284815260006020808301919091528083019182529251634692626760e01b81529151600483015251805160248301529091015160448201526001600160a01b0390911690634692626790606401600060405180830381600087803b158015610fff57600080fd5b505af1158015610af2573d6000803e3d6000fd5b336000908152600c602052604090205460ff166110425760405162461bcd60e51b81526004016106829061258d565b6000828152601060205260409020610a3982826128c3565b336000908152600c602052604090205460ff166110895760405162461bcd60e51b81526004016106829061258d565b6001600160a01b03919091166000908152600c60205260409020805460ff1916911515919091179055565b336000908152600c602052604090205460ff166110e35760405162461bcd60e51b81526004016106829061258d565b600d6110ef82826128c3565b5050565b336000908152600c602052604090205460ff166111225760405162461bcd60e51b81526004016106829061258d565b600855565b6000818152600260205260408120546001600160a01b03168061064d5760405162461bcd60e51b8152602060048201526018602482015277115490cdcc8c4e881a5b9d985b1a59081d1bdad95b88125160421b6044820152606401610682565b336000908152600c602052604090205460ff166111b65760405162461bcd60e51b81526004016106829061258d565b6001600b60008282546111c991906125d3565b92505081905550610e0981600b5461191f565b60006001600160a01b0382166112465760405162461bcd60e51b815260206004820152602960248201527f4552433732313a2061646472657373207a65726f206973206e6f7420612076616044820152683634b21037bbb732b960b91b6064820152608401610682565b506001600160a01b031660009081526003602052604090205490565b336000908152600c602052604090205460ff166112915760405162461bcd60e51b81526004016106829061258d565b600754604051630c1af44f60e31b815260606004820152605560648201527f616464726573732066726f6d2c2075696e74206e667449442c20737472696e6760848201527f20636f6e747269627574696f6e547970652c2075696e743820616d6f756e742c60a482015274040e6e8e4d2dcce40c8cae6c6e4d2e0e8d2dedcbe7605b1b60c482015260006024820152600160448201526001600160a01b03909116906360d7a2789060e4016020604051808303816000875af115801561135b573d6000803e3d6000fd5b505050506040513d601f19601f820116820180604052508101906111229190612778565b336000908152600c602052604090205460ff166113ae5760405162461bcd60e51b81526004016106829061258d565b600a805460ff191660ff92909216919091179055565b60606001805461087f906125fd565b6110ef338383611aaa565b6113e833836116a8565b6114045760405162461bcd60e51b8152600401610682906127dc565b610f4b84848484611b78565b336000908152600c602052604090205460ff1661143f5760405162461bcd60e51b81526004016106829061258d565b600780546001600160a01b0319166001600160a01b0392909216919091179055565b606061146c826115db565b6000611476611bab565b9050600081511161149657604051806020016040528060008152506114c1565b806114a084611bba565b6040516020016114b1929190612982565b6040516020818303038152906040525b9392505050565b336000908152600c602052604090205460ff166114f75760405162461bcd60e51b81526004016106829061258d565b600955565b336000908152600c602052604090205460ff1661152b5760405162461bcd60e51b81526004016106829061258d565b600680546001600160a01b0319166001600160a01b0392909216919091179055565b600d805461155a906125fd565b80601f0160208091040260200160405190810160405280929190818152602001828054611586906125fd565b80156115d35780601f106115a8576101008083540402835291602001916115d3565b820191906000526020600020905b8154815290600101906020018083116115b657829003601f168201915b505050505081565b6000818152600260205260409020546001600160a01b0316610e095760405162461bcd60e51b8152602060048201526018602482015277115490cdcc8c4e881a5b9d985b1a59081d1bdad95b88125160421b6044820152606401610682565b600081815260046020526040902080546001600160a01b0319166001600160a01b038416908117909155819061166f82611127565b6001600160a01b03167f8c5be1e5ebec7d5bd14f71427d1e84f3dd0314c0f7b2291e5b200ac8c7c3b92560405160405180910390a45050565b6000806116b483611127565b9050806001600160a01b0316846001600160a01b031614806116fb57506001600160a01b0380821660009081526005602090815260408083209388168352929052205460ff165b806108685750836001600160a01b031661171484610902565b6001600160a01b031614949350505050565b826001600160a01b031661173982611127565b6001600160a01b03161461175f5760405162461bcd60e51b8152600401610682906129b1565b6001600160a01b0382166117c15760405162461bcd60e51b8152602060048201526024808201527f4552433732313a207472616e7366657220746f20746865207a65726f206164646044820152637265737360e01b6064820152608401610682565b826001600160a01b03166117d482611127565b6001600160a01b0316146117fa5760405162461bcd60e51b8152600401610682906129b1565b600081815260046020908152604080832080546001600160a01b03199081169091556001600160a01b0387811680865260038552838620805460001901905590871680865283862080546001019055868652600290945282852080549092168417909155905184937fddf252ad1be2c89b69c2b068fc378daa952ba7f163c4a11628f55a4df523b3ef91a4505050565b600061189582611127565b90506118a082611127565b600083815260046020908152604080832080546001600160a01b03199081169091556001600160a01b0385168085526003845282852080546000190190558785526002909352818420805490911690555192935084927fddf252ad1be2c89b69c2b068fc378daa952ba7f163c4a11628f55a4df523b3ef908390a45050565b6001600160a01b0382166119755760405162461bcd60e51b815260206004820181905260248201527f4552433732313a206d696e7420746f20746865207a65726f20616464726573736044820152606401610682565b6000818152600260205260409020546001600160a01b0316156119da5760405162461bcd60e51b815260206004820152601c60248201527f4552433732313a20746f6b656e20616c7265616479206d696e746564000000006044820152606401610682565b6000818152600260205260409020546001600160a01b031615611a3f5760405162461bcd60e51b815260206004820152601c60248201527f4552433732313a20746f6b656e20616c7265616479206d696e746564000000006044820152606401610682565b6001600160a01b038216600081815260036020908152604080832080546001019055848352600290915280822080546001600160a01b0319168417905551839291907fddf252ad1be2c89b69c2b068fc378daa952ba7f163c4a11628f55a4df523b3ef908290a45050565b816001600160a01b0316836001600160a01b031603611b0b5760405162461bcd60e51b815260206004820152601960248201527f4552433732313a20617070726f766520746f2063616c6c6572000000000000006044820152606401610682565b6001600160a01b03838116600081815260056020908152604080832094871680845294825291829020805460ff191686151590811790915591519182527f17307eab39ab6107e8899845ad3d59bd9653f200f220920489ca2b5937696c31910160405180910390a3505050565b611b83848484611726565b611b8f84848484611c4c565b610f4b5760405162461bcd60e51b8152600401610682906129f6565b6060600d805461087f906125fd565b60606000611bc783611d4a565b60010190506000816001600160401b03811115611be657611be6611e6b565b6040519080825280601f01601f191660200182016040528015611c10576020820181803683370190505b5090508181016020015b600019016f181899199a1a9b1b9c1cb0b131b232b360811b600a86061a8153600a8504945084611c1a57509392505050565b60006001600160a01b0384163b15611d4257604051630a85bd0160e11b81526001600160a01b0385169063150b7a0290611c90903390899088908890600401612a48565b6020604051808303816000875af1925050508015611ccb575060408051601f3d908101601f19168201909252611cc891810190612a7b565b60015b611d28573d808015611cf9576040519150601f19603f3d011682016040523d82523d6000602084013e611cfe565b606091505b508051600003611d205760405162461bcd60e51b8152600401610682906129f6565b805181602001fd5b6001600160e01b031916630a85bd0160e11b149050610868565b506001610868565b60008072184f03e93ff9f4daa797ed6e38ed64bf6a1f0160401b8310611d895772184f03e93ff9f4daa797ed6e38ed64bf6a1f0160401b830492506040015b6d04ee2d6d415b85acef81000000008310611db5576d04ee2d6d415b85acef8100000000830492506020015b662386f26fc100008310611dd357662386f26fc10000830492506010015b6305f5e1008310611deb576305f5e100830492506008015b6127108310611dff57612710830492506004015b60648310611e11576064830492506002015b600a831061064d5760010192915050565b6001600160e01b031981168114610e0957600080fd5b600060208284031215611e4a57600080fd5b81356114c181611e22565b803560ff81168114611e6657600080fd5b919050565b634e487b7160e01b600052604160045260246000fd5b604051601f8201601f191681016001600160401b0381118282101715611ea957611ea9611e6b565b604052919050565b60006001600160401b03831115611eca57611eca611e6b565b611edd601f8401601f1916602001611e81565b9050828152838383011115611ef157600080fd5b828260208301376000602084830101529392505050565b600082601f830112611f1957600080fd5b6114c183833560208501611eb1565b60008060008060808587031215611f3e57600080fd5b84359350611f4e60208601611e55565b9250611f5c60408601611e55565b915060608501356001600160401b03811115611f7757600080fd5b611f8387828801611f08565b91505092959194509250565b60005b83811015611faa578181015183820152602001611f92565b50506000910152565b60008151808452611fcb816020860160208601611f8f565b601f01601f19169290920160200192915050565b6020815260006114c16020830184611fb3565b60006020828403121561200457600080fd5b5035919050565b80356001600160a01b0381168114611e6657600080fd5b6000806040838503121561203557600080fd5b61203e8361200b565b946020939093013593505050565b60006020828403121561205e57600080fd5b6114c18261200b565b60006001600160401b0382111561208057612080611e6b565b5060051b60200190565b600082601f83011261209b57600080fd5b813560206120b06120ab83612067565b611e81565b8083825260208201915060208460051b8701019350868411156120d257600080fd5b602086015b848110156120ee57803583529183019183016120d7565b509695505050505050565b600082601f83011261210a57600080fd5b8135602061211a6120ab83612067565b8083825260208201915060208460051b87010193508684111561213c57600080fd5b602086015b848110156120ee5761215281611e55565b8352918301918301612141565b6000806000806080858703121561217557600080fd5b84356001600160401b038082111561218c57600080fd5b6121988883890161208a565b95506020915081870135818111156121af57600080fd5b6121bb89828a016120f9565b9550506040870135818111156121d057600080fd5b6121dc89828a016120f9565b9450506060870135818111156121f157600080fd5b8701601f8101891361220257600080fd5b80356122106120ab82612067565b81815260059190911b8201840190848101908b83111561222f57600080fd5b8584015b838110156122675780358681111561224b5760008081fd5b6122598e8983890101611f08565b845250918601918601612233565b50989b979a50959850505050505050565b6000806040838503121561228b57600080fd5b8235915061229b60208401611e55565b90509250929050565b6000806000606084860312156122b957600080fd5b6122c28461200b565b92506122d06020850161200b565b9150604084013590509250925092565b6000806000606084860312156122f557600080fd5b8335925061230560208501611e55565b915061231360408501611e55565b90509250925092565b6000806040838503121561232f57600080fd5b8235915060208301356001600160401b0381111561234c57600080fd5b612358858286016120f9565b9150509250929050565b6020808252825182820181905260009190848201906040850190845b8181101561239a5783518352928401929184019160010161237e565b50909695505050505050565b6000806000606084860312156123bb57600080fd5b83356001600160401b03808211156123d257600080fd5b6123de8783880161208a565b945060208601359150808211156123f457600080fd5b612400878388016120f9565b9350604086013591508082111561241657600080fd5b50612423868287016120f9565b9150509250925092565b6000806040838503121561244057600080fd5b8235915060208301356001600160401b0381111561245d57600080fd5b61235885828601611f08565b6000806040838503121561247c57600080fd5b6124858361200b565b91506020830135801515811461249a57600080fd5b809150509250929050565b6000602082840312156124b757600080fd5b81356001600160401b038111156124cd57600080fd5b61086884828501611f08565b6000602082840312156124eb57600080fd5b6114c182611e55565b6000806000806080858703121561250a57600080fd5b6125138561200b565b93506125216020860161200b565b92506040850135915060608501356001600160401b0381111561254357600080fd5b8501601f8101871361255457600080fd5b611f8387823560208401611eb1565b6000806040838503121561257657600080fd5b61257f8361200b565b915061229b6020840161200b565b60208082526016908201527521b0b63632b91034b9903737ba1037b832b930ba37b960511b604082015260600190565b634e487b7160e01b600052601160045260246000fd5b8082018082111561064d5761064d6125bd565b808202811582820484141761064d5761064d6125bd565b600181811c9082168061261157607f821691505b60208210810361263157634e487b7160e01b600052602260045260246000fd5b50919050565b60008154612644816125fd565b808552602060018381168015612661576001811461267b576126a9565b60ff1985168884015283151560051b8801830195506126a9565b866000528260002060005b858110156126a15781548a8201860152908301908401612686565b890184019650505b505050505092915050565b60018060a01b038616815284602082015260a0604082015260006126db60a0830186612637565b60ff851660608401528281036080840152610b6a8185611fb3565b60208152815160208201526000602083015160408084015260018060a01b0381511660608401526001600160401b0360208201511660808401526040810151151560a0840152606081015160c0840152608081015160c060e0850152612760610120850182611fb3565b905060a0820151610100850152809250505092915050565b60006020828403121561278a57600080fd5b5051919050565b634e487b7160e01b600052603260045260246000fd5b8181038181111561064d5761064d6125bd565b6000826127d757634e487b7160e01b600052601260045260246000fd5b500490565b6020808252602d908201527f4552433732313a2063616c6c6572206973206e6f7420746f6b656e206f776e6560408201526c1c881bdc88185c1c1c9bdd9959609a1b606082015260800190565b60018060a01b038516815283602082015260a06040820152600061285060a0830185612637565b60ff93909316606083015250808203608090910152600081526020019392505050565b601f821115610a39576000816000526020600020601f850160051c8101602086101561289c5750805b601f850160051c820191505b818110156128bb578281556001016128a8565b505050505050565b81516001600160401b038111156128dc576128dc611e6b565b6128f0816128ea84546125fd565b84612873565b602080601f831160018114612925576000841561290d5750858301515b600019600386901b1c1916600185901b1785556128bb565b600085815260208120601f198616915b8281101561295457888601518255948401946001909101908401612935565b50858210156129725787850151600019600388901b60f8161c191681555b5050505050600190811b01905550565b60008351612994818460208801611f8f565b8351908301906129a8818360208801611f8f565b01949350505050565b60208082526025908201527f4552433732313a207472616e736665722066726f6d20696e636f72726563742060408201526437bbb732b960d91b606082015260800190565b60208082526032908201527f4552433732313a207472616e7366657220746f206e6f6e20455243373231526560408201527131b2b4bb32b91034b6b83632b6b2b73a32b960711b606082015260800190565b6001600160a01b0385811682528416602082015260408101839052608060608201819052600090610dac90830184611fb3565b600060208284031215612a8d57600080fd5b81516114c181611e2256fea2646970667358221220e9c96b0e1d3fb17093605a703a63bdda3e764f9da661655a7efb0e8821071dfb64736f6c63430008170033",
  "devdoc": {
    "events": {
      "Approval(address,address,uint256)": {
        "details": "Emitted when `owner` enables `approved` to manage the `tokenId` token."
      },
      "ApprovalForAll(address,address,bool)": {
        "details": "Emitted when `owner` enables or disables (`approved`) `operator` to manage all of its assets."
      },
      "Transfer(address,address,uint256)": {
        "details": "Emitted when `tokenId` token is transferred from `from` to `to`."
      }
    },
    "kind": "dev",
    "methods": {
      "approve(address,uint256)": {
        "details": "See {IERC721-approve}."
      },
      "balanceOf(address)": {
        "details": "See {IERC721-balanceOf}."
      },
      "getApproved(uint256)": {
        "details": "See {IERC721-getApproved}."
      },
      "isApprovedForAll(address,address)": {
        "details": "See {IERC721-isApprovedForAll}."
      },
      "name()": {
        "details": "See {IERC721Metadata-name}."
      },
      "ownerOf(uint256)": {
        "details": "See {IERC721-ownerOf}."
      },
      "safeTransferFrom(address,address,uint256)": {
        "details": "See {IERC721-safeTransferFrom}."
      },
      "safeTransferFrom(address,address,uint256,bytes)": {
        "details": "See {IERC721-safeTransferFrom}."
      },
      "setApprovalForAll(address,bool)": {
        "details": "See {IERC721-setApprovalForAll}."
      },
      "supportsInterface(bytes4)": {
        "details": "See {IERC165-supportsInterface}."
      },
      "symbol()": {
        "details": "See {IERC721Metadata-symbol}."
      },
      "tokenURI(uint256)": {
        "details": "See {IERC721Metadata-tokenURI}."
      },
      "transferFrom(address,address,uint256)": {
        "details": "See {IERC721-transferFrom}."
      }
    },
    "version": 1
  },
  "userdoc": {
    "kind": "user",
    "methods": {},
    "version": 1
  },
  "storageLayout": {
    "storage": [
      {
        "astId": 521,
        "contract": "contracts/ContributionsNFT.sol:ContributionsNFT",
        "label": "_name",
        "offset": 0,
        "slot": "0",
        "type": "t_string_storage"
      },
      {
        "astId": 523,
        "contract": "contracts/ContributionsNFT.sol:ContributionsNFT",
        "label": "_symbol",
        "offset": 0,
        "slot": "1",
        "type": "t_string_storage"
      },
      {
        "astId": 527,
        "contract": "contracts/ContributionsNFT.sol:ContributionsNFT",
        "label": "_owners",
        "offset": 0,
        "slot": "2",
        "type": "t_mapping(t_uint256,t_address)"
      },
      {
        "astId": 531,
        "contract": "contracts/ContributionsNFT.sol:ContributionsNFT",
        "label": "_balances",
        "offset": 0,
        "slot": "3",
        "type": "t_mapping(t_address,t_uint256)"
      },
      {
        "astId": 535,
        "contract": "contracts/ContributionsNFT.sol:ContributionsNFT",
        "label": "_tokenApprovals",
        "offset": 0,
        "slot": "4",
        "type": "t_mapping(t_uint256,t_address)"
      },
      {
        "astId": 541,
        "contract": "contracts/ContributionsNFT.sol:ContributionsNFT",
        "label": "_operatorApprovals",
        "offset": 0,
        "slot": "5",
        "type": "t_mapping(t_address,t_mapping(t_address,t_bool))"
      },
      {
        "astId": 3192,
        "contract": "contracts/ContributionsNFT.sol:ContributionsNFT",
        "label": "eas",
        "offset": 0,
        "slot": "6",
        "type": "t_address"
      },
      {
        "astId": 3195,
        "contract": "contracts/ContributionsNFT.sol:ContributionsNFT",
        "label": "schemaRegistry",
        "offset": 0,
        "slot": "7",
        "type": "t_address"
      },
      {
        "astId": 3197,
        "contract": "contracts/ContributionsNFT.sol:ContributionsNFT",
        "label": "schemaID",
        "offset": 0,
        "slot": "8",
        "type": "t_bytes32"
      },
      {
        "astId": 3200,
        "contract": "contracts/ContributionsNFT.sol:ContributionsNFT",
        "label": "contributionDecayTime",
        "offset": 0,
        "slot": "9",
        "type": "t_uint256"
      },
      {
        "astId": 3203,
        "contract": "contracts/ContributionsNFT.sol:ContributionsNFT",
        "label": "maxContributionAmount",
        "offset": 0,
        "slot": "10",
        "type": "t_uint8"
      },
      {
        "astId": 3205,
        "contract": "contracts/ContributionsNFT.sol:ContributionsNFT",
        "label": "tokenCount",
        "offset": 0,
        "slot": "11",
        "type": "t_uint256"
      },
      {
        "astId": 3209,
        "contract": "contracts/ContributionsNFT.sol:ContributionsNFT",
        "label": "operators",
        "offset": 0,
        "slot": "12",
        "type": "t_mapping(t_address,t_bool)"
      },
      {
        "astId": 3211,
        "contract": "contracts/ContributionsNFT.sol:ContributionsNFT",
        "label": "baseTokenURI",
        "offset": 0,
        "slot": "13",
        "type": "t_string_storage"
      },
      {
        "astId": 3217,
        "contract": "contracts/ContributionsNFT.sol:ContributionsNFT",
        "label": "contributionTimestamps",
        "offset": 0,
        "slot": "14",
        "type": "t_mapping(t_uint256,t_mapping(t_uint8,t_uint256))"
      },
      {
        "astId": 3223,
        "contract": "contracts/ContributionsNFT.sol:ContributionsNFT",
        "label": "contributionAmounts",
        "offset": 0,
        "slot": "15",
        "type": "t_mapping(t_uint256,t_mapping(t_uint8,t_uint256))"
      },
      {
        "astId": 3227,
        "contract": "contracts/ContributionsNFT.sol:ContributionsNFT",
        "label": "contributionTypes",
        "offset": 0,
        "slot": "16",
        "type": "t_mapping(t_uint256,t_string_storage)"
      }
    ],
    "types": {
      "t_address": {
        "encoding": "inplace",
        "label": "address",
        "numberOfBytes": "20"
      },
      "t_bool": {
        "encoding": "inplace",
        "label": "bool",
        "numberOfBytes": "1"
      },
      "t_bytes32": {
        "encoding": "inplace",
        "label": "bytes32",
        "numberOfBytes": "32"
      },
      "t_mapping(t_address,t_bool)": {
        "encoding": "mapping",
        "key": "t_address",
        "label": "mapping(address => bool)",
        "numberOfBytes": "32",
        "value": "t_bool"
      },
      "t_mapping(t_address,t_mapping(t_address,t_bool))": {
        "encoding": "mapping",
        "key": "t_address",
        "label": "mapping(address => mapping(address => bool))",
        "numberOfBytes": "32",
        "value": "t_mapping(t_address,t_bool)"
      },
      "t_mapping(t_address,t_uint256)": {
        "encoding": "mapping",
        "key": "t_address",
        "label": "mapping(address => uint256)",
        "numberOfBytes": "32",
        "value": "t_uint256"
      },
      "t_mapping(t_uint256,t_address)": {
        "encoding": "mapping",
        "key": "t_uint256",
        "label": "mapping(uint256 => address)",
        "numberOfBytes": "32",
        "value": "t_address"
      },
      "t_mapping(t_uint256,t_mapping(t_uint8,t_uint256))": {
        "encoding": "mapping",
        "key": "t_uint256",
        "label": "mapping(uint256 => mapping(uint8 => uint256))",
        "numberOfBytes": "32",
        "value": "t_mapping(t_uint8,t_uint256)"
      },
      "t_mapping(t_uint256,t_string_storage)": {
        "encoding": "mapping",
        "key": "t_uint256",
        "label": "mapping(uint256 => string)",
        "numberOfBytes": "32",
        "value": "t_string_storage"
      },
      "t_mapping(t_uint8,t_uint256)": {
        "encoding": "mapping",
        "key": "t_uint8",
        "label": "mapping(uint8 => uint256)",
        "numberOfBytes": "32",
        "value": "t_uint256"
      },
      "t_string_storage": {
        "encoding": "bytes",
        "label": "string",
        "numberOfBytes": "32"
      },
      "t_uint256": {
        "encoding": "inplace",
        "label": "uint256",
        "numberOfBytes": "32"
      },
      "t_uint8": {
        "encoding": "inplace",
        "label": "uint8",
        "numberOfBytes": "1"
      }
    }
  }
}