{
  "address": "0xD205F2f23b5BE5FC0c10f828071123008682ce9E",
  "abi": [
    {
      "inputs": [
        {
          "internalType": "address",
          "name": "_eas",
          "type": "address"
        },
        {
          "internalType": "address",
          "name": "_schemaRegistry",
          "type": "address"
        },
        {
          "internalType": "address",
          "name": "contribuDataAddress",
          "type": "address"
        },
        {
          "internalType": "string",
          "name": "_NFTName",
          "type": "string"
        },
        {
          "internalType": "string",
          "name": "_NFTSymbol",
          "type": "string"
        }
      ],
      "stateMutability": "nonpayable",
      "type": "constructor"
    },
    {
      "anonymous": false,
      "inputs": [
        {
          "indexed": true,
          "internalType": "address",
          "name": "owner",
          "type": "address"
        },
        {
          "indexed": true,
          "internalType": "address",
          "name": "approved",
          "type": "address"
        },
        {
          "indexed": true,
          "internalType": "uint256",
          "name": "tokenId",
          "type": "uint256"
        }
      ],
      "name": "Approval",
      "type": "event"
    },
    {
      "anonymous": false,
      "inputs": [
        {
          "indexed": true,
          "internalType": "address",
          "name": "owner",
          "type": "address"
        },
        {
          "indexed": true,
          "internalType": "address",
          "name": "operator",
          "type": "address"
        },
        {
          "indexed": false,
          "internalType": "bool",
          "name": "approved",
          "type": "bool"
        }
      ],
      "name": "ApprovalForAll",
      "type": "event"
    },
    {
      "anonymous": false,
      "inputs": [
        {
          "indexed": true,
          "internalType": "address",
          "name": "from",
          "type": "address"
        },
        {
          "indexed": true,
          "internalType": "address",
          "name": "to",
          "type": "address"
        },
        {
          "indexed": true,
          "internalType": "uint256",
          "name": "tokenId",
          "type": "uint256"
        }
      ],
      "name": "Transfer",
      "type": "event"
    },
    {
      "inputs": [
        {
          "internalType": "address",
          "name": "to",
          "type": "address"
        },
        {
          "internalType": "uint256",
          "name": "tokenId",
          "type": "uint256"
        }
      ],
      "name": "approve",
      "outputs": [],
      "stateMutability": "nonpayable",
      "type": "function"
    },
    {
      "inputs": [
        {
          "internalType": "address",
          "name": "owner",
          "type": "address"
        }
      ],
      "name": "balanceOf",
      "outputs": [
        {
          "internalType": "uint256",
          "name": "",
          "type": "uint256"
        }
      ],
      "stateMutability": "view",
      "type": "function"
    },
    {
      "inputs": [],
      "name": "baseTokenURI",
      "outputs": [
        {
          "internalType": "string",
          "name": "",
          "type": "string"
        }
      ],
      "stateMutability": "view",
      "type": "function"
    },
    {
      "inputs": [
        {
          "internalType": "uint256",
          "name": "nftId",
          "type": "uint256"
        }
      ],
      "name": "burn",
      "outputs": [],
      "stateMutability": "nonpayable",
      "type": "function"
    },
    {
      "inputs": [],
      "name": "contributionDecayTime",
      "outputs": [
        {
          "internalType": "uint256",
          "name": "",
          "type": "uint256"
        }
      ],
      "stateMutability": "view",
      "type": "function"
    },
    {
      "inputs": [],
      "name": "eas",
      "outputs": [
        {
          "internalType": "address",
          "name": "",
          "type": "address"
        }
      ],
      "stateMutability": "view",
      "type": "function"
    },
    {
      "inputs": [
        {
          "internalType": "uint256",
          "name": "tokenId",
          "type": "uint256"
        }
      ],
      "name": "getApproved",
      "outputs": [
        {
          "internalType": "address",
          "name": "",
          "type": "address"
        }
      ],
      "stateMutability": "view",
      "type": "function"
    },
    {
      "inputs": [
        {
          "internalType": "uint256",
          "name": "nftId",
          "type": "uint256"
        },
        {
          "internalType": "uint8",
          "name": "contributionTypeId",
          "type": "uint8"
        }
      ],
      "name": "getContribution",
      "outputs": [
        {
          "internalType": "uint256",
          "name": "",
          "type": "uint256"
        }
      ],
      "stateMutability": "view",
      "type": "function"
    },
    {
      "inputs": [
        {
          "internalType": "uint256",
          "name": "nftId",
          "type": "uint256"
        },
        {
          "internalType": "uint8[]",
          "name": "contributionTypeIds",
          "type": "uint8[]"
        }
      ],
      "name": "getContributions",
      "outputs": [
        {
          "internalType": "uint256[]",
          "name": "",
          "type": "uint256[]"
        }
      ],
      "stateMutability": "view",
      "type": "function"
    },
    {
      "inputs": [
        {
          "internalType": "address",
          "name": "owner",
          "type": "address"
        },
        {
          "internalType": "address",
          "name": "operator",
          "type": "address"
        }
      ],
      "name": "isApprovedForAll",
      "outputs": [
        {
          "internalType": "bool",
          "name": "",
          "type": "bool"
        }
      ],
      "stateMutability": "view",
      "type": "function"
    },
    {
      "inputs": [],
      "name": "maxContributionAmount",
      "outputs": [
        {
          "internalType": "uint8",
          "name": "",
          "type": "uint8"
        }
      ],
      "stateMutability": "view",
      "type": "function"
    },
    {
      "inputs": [
        {
          "internalType": "address",
          "name": "to",
          "type": "address"
        }
      ],
      "name": "mint",
      "outputs": [],
      "stateMutability": "nonpayable",
      "type": "function"
    },
    {
      "inputs": [
        {
          "internalType": "uint256[]",
          "name": "_nftIds",
          "type": "uint256[]"
        },
        {
          "internalType": "uint8[]",
          "name": "_contributionTypeIds",
          "type": "uint8[]"
        },
        {
          "internalType": "uint8[]",
          "name": "_contributionAmounts",
          "type": "uint8[]"
        },
        {
          "internalType": "string[]",
          "name": "_descriptions",
          "type": "string[]"
        }
      ],
      "name": "multiSetContribution",
      "outputs": [],
      "stateMutability": "nonpayable",
      "type": "function"
    },
    {
      "inputs": [
        {
          "internalType": "uint256[]",
          "name": "_nftIds",
          "type": "uint256[]"
        },
        {
          "internalType": "uint8[]",
          "name": "_contributionTypeIds",
          "type": "uint8[]"
        },
        {
          "internalType": "uint8[]",
          "name": "_contributionAmounts",
          "type": "uint8[]"
        }
      ],
      "name": "multiSetContributionLean",
      "outputs": [],
      "stateMutability": "nonpayable",
      "type": "function"
    },
    {
      "inputs": [],
      "name": "name",
      "outputs": [
        {
          "internalType": "string",
          "name": "",
          "type": "string"
        }
      ],
      "stateMutability": "view",
      "type": "function"
    },
    {
      "inputs": [
        {
          "internalType": "address",
          "name": "",
          "type": "address"
        }
      ],
      "name": "operators",
      "outputs": [
        {
          "internalType": "bool",
          "name": "",
          "type": "bool"
        }
      ],
      "stateMutability": "view",
      "type": "function"
    },
    {
      "inputs": [
        {
          "internalType": "uint256",
          "name": "tokenId",
          "type": "uint256"
        }
      ],
      "name": "ownerOf",
      "outputs": [
        {
          "internalType": "address",
          "name": "",
          "type": "address"
        }
      ],
      "stateMutability": "view",
      "type": "function"
    },
    {
      "inputs": [
        {
          "internalType": "bytes32",
          "name": "attestationID",
          "type": "bytes32"
        }
      ],
      "name": "revokeAttestation",
      "outputs": [],
      "stateMutability": "nonpayable",
      "type": "function"
    },
    {
      "inputs": [
        {
          "internalType": "address",
          "name": "from",
          "type": "address"
        },
        {
          "internalType": "address",
          "name": "to",
          "type": "address"
        },
        {
          "internalType": "uint256",
          "name": "tokenId",
          "type": "uint256"
        }
      ],
      "name": "safeTransferFrom",
      "outputs": [],
      "stateMutability": "nonpayable",
      "type": "function"
    },
    {
      "inputs": [
        {
          "internalType": "address",
          "name": "from",
          "type": "address"
        },
        {
          "internalType": "address",
          "name": "to",
          "type": "address"
        },
        {
          "internalType": "uint256",
          "name": "tokenId",
          "type": "uint256"
        },
        {
          "internalType": "bytes",
          "name": "data",
          "type": "bytes"
        }
      ],
      "name": "safeTransferFrom",
      "outputs": [],
      "stateMutability": "nonpayable",
      "type": "function"
    },
    {
      "inputs": [],
      "name": "schemaID",
      "outputs": [
        {
          "internalType": "bytes32",
          "name": "",
          "type": "bytes32"
        }
      ],
      "stateMutability": "view",
      "type": "function"
    },
    {
      "inputs": [],
      "name": "schemaRegistry",
      "outputs": [
        {
          "internalType": "address",
          "name": "",
          "type": "address"
        }
      ],
      "stateMutability": "view",
      "type": "function"
    },
    {
      "inputs": [
        {
          "internalType": "address",
          "name": "operator",
          "type": "address"
        },
        {
          "internalType": "bool",
          "name": "approved",
          "type": "bool"
        }
      ],
      "name": "setApprovalForAll",
      "outputs": [],
      "stateMutability": "nonpayable",
      "type": "function"
    },
    {
      "inputs": [
        {
          "internalType": "string",
          "name": "baseURI",
          "type": "string"
        }
      ],
      "name": "setBaseURI",
      "outputs": [],
      "stateMutability": "nonpayable",
      "type": "function"
    },
    {
      "inputs": [
        {
          "internalType": "address",
          "name": "contribuDataAddress",
          "type": "address"
        }
      ],
      "name": "setContribuData",
      "outputs": [],
      "stateMutability": "nonpayable",
      "type": "function"
    },
    {
      "inputs": [
        {
          "internalType": "uint256",
          "name": "nftId",
          "type": "uint256"
        },
        {
          "internalType": "uint8",
          "name": "contributionTypeId",
          "type": "uint8"
        },
        {
          "internalType": "uint8",
          "name": "contributionAmount",
          "type": "uint8"
        },
        {
          "internalType": "string",
          "name": "description",
          "type": "string"
        }
      ],
      "name": "setContribution",
      "outputs": [
        {
          "internalType": "bytes32",
          "name": "",
          "type": "bytes32"
        }
      ],
      "stateMutability": "nonpayable",
      "type": "function"
    },
    {
      "inputs": [
        {
          "internalType": "uint256",
          "name": "_contributionDecayTime",
          "type": "uint256"
        }
      ],
      "name": "setContributionDecayTime",
      "outputs": [],
      "stateMutability": "nonpayable",
      "type": "function"
    },
    {
      "inputs": [
        {
          "internalType": "uint256",
          "name": "nftId",
          "type": "uint256"
        },
        {
          "internalType": "uint8",
          "name": "contributionTypeId",
          "type": "uint8"
        },
        {
          "internalType": "uint8",
          "name": "contributionAmount",
          "type": "uint8"
        }
      ],
      "name": "setContributionLean",
      "outputs": [
        {
          "internalType": "bytes32",
          "name": "",
          "type": "bytes32"
        }
      ],
      "stateMutability": "nonpayable",
      "type": "function"
    },
    {
      "inputs": [
        {
          "internalType": "uint256",
          "name": "id",
          "type": "uint256"
        },
        {
          "internalType": "string",
          "name": "name",
          "type": "string"
        }
      ],
      "name": "setContributionType",
      "outputs": [],
      "stateMutability": "nonpayable",
      "type": "function"
    },
    {
      "inputs": [
        {
          "internalType": "address",
          "name": "_eas",
          "type": "address"
        }
      ],
      "name": "setEAS",
      "outputs": [],
      "stateMutability": "nonpayable",
      "type": "function"
    },
    {
      "inputs": [
        {
          "internalType": "uint8",
          "name": "_maxContributionAmount",
          "type": "uint8"
        }
      ],
      "name": "setMaxContributionAmount",
      "outputs": [],
      "stateMutability": "nonpayable",
      "type": "function"
    },
    {
      "inputs": [
        {
          "internalType": "address",
          "name": "operator",
          "type": "address"
        },
        {
          "internalType": "bool",
          "name": "value",
          "type": "bool"
        }
      ],
      "name": "setOperator",
      "outputs": [],
      "stateMutability": "nonpayable",
      "type": "function"
    },
    {
      "inputs": [
        {
          "internalType": "bytes32",
          "name": "_schemaID",
          "type": "bytes32"
        }
      ],
      "name": "setSchemaID",
      "outputs": [],
      "stateMutability": "nonpayable",
      "type": "function"
    },
    {
      "inputs": [
        {
          "internalType": "address",
          "name": "_schemaRegistry",
          "type": "address"
        }
      ],
      "name": "setSchemaRegistry",
      "outputs": [],
      "stateMutability": "nonpayable",
      "type": "function"
    },
    {
      "inputs": [
        {
          "internalType": "bytes4",
          "name": "interfaceId",
          "type": "bytes4"
        }
      ],
      "name": "supportsInterface",
      "outputs": [
        {
          "internalType": "bool",
          "name": "",
          "type": "bool"
        }
      ],
      "stateMutability": "view",
      "type": "function"
    },
    {
      "inputs": [],
      "name": "symbol",
      "outputs": [
        {
          "internalType": "string",
          "name": "",
          "type": "string"
        }
      ],
      "stateMutability": "view",
      "type": "function"
    },
    {
      "inputs": [],
      "name": "tokenCount",
      "outputs": [
        {
          "internalType": "uint256",
          "name": "",
          "type": "uint256"
        }
      ],
      "stateMutability": "view",
      "type": "function"
    },
    {
      "inputs": [
        {
          "internalType": "uint256",
          "name": "tokenId",
          "type": "uint256"
        }
      ],
      "name": "tokenURI",
      "outputs": [
        {
          "internalType": "string",
          "name": "",
          "type": "string"
        }
      ],
      "stateMutability": "view",
      "type": "function"
    },
    {
      "inputs": [
        {
          "internalType": "address",
          "name": "from",
          "type": "address"
        },
        {
          "internalType": "address",
          "name": "to",
          "type": "address"
        },
        {
          "internalType": "uint256",
          "name": "tokenId",
          "type": "uint256"
        }
      ],
      "name": "transferFrom",
      "outputs": [],
      "stateMutability": "nonpayable",
      "type": "function"
    }
  ],
  "transactionHash": "0xc852f8f871b6844094fa05ac59afbd288ccb2c5f0770dc7c78fc5b128f581072",
  "args": [
    "0x4200000000000000000000000000000000000021",
    "0x4200000000000000000000000000000000000020",
    "0x87DFa5646f097F52448A93f273AB835974d72643",
    "Contributions NFT",
    "CNFT"
  ],
  "numDeployments": 2,
  "solcInputHash": "d3cb72d8686061485f901120c0c6a55c",
  "bytecode": "0x6080604052600680546001600160a01b03199081167342000000000000000000000000000000000000211790915560078054909116734200000000000000000000000000000000000020179055603c600955600a805460ff191660051790553480156200006b57600080fd5b50604051620030c9380380620030c98339810160408190526200008e91620001f4565b818160006200009e838262000328565b506001620000ad828262000328565b5050600680546001600160a01b03199081166001600160a01b0398891617909155600780548216968816969096179095555050600e80549093169190931617905550336000908152600c60205260409020805460ff19166001179055620003f4565b80516001600160a01b03811681146200012757600080fd5b919050565b634e487b7160e01b600052604160045260246000fd5b600082601f8301126200015457600080fd5b81516001600160401b03808211156200017157620001716200012c565b604051601f8301601f19908116603f011681019082821181831017156200019c576200019c6200012c565b8160405283815260209250866020858801011115620001ba57600080fd5b600091505b83821015620001de5785820183015181830184015290820190620001bf565b6000602085830101528094505050505092915050565b600080600080600060a086880312156200020d57600080fd5b62000218866200010f565b945062000228602087016200010f565b935062000238604087016200010f565b60608701519093506001600160401b03808211156200025657600080fd5b6200026489838a0162000142565b935060808801519150808211156200027b57600080fd5b506200028a8882890162000142565b9150509295509295909350565b600181811c90821680620002ac57607f821691505b602082108103620002cd57634e487b7160e01b600052602260045260246000fd5b50919050565b601f82111562000323576000816000526020600020601f850160051c81016020861015620002fe5750805b601f850160051c820191505b818110156200031f578281556001016200030a565b5050505b505050565b81516001600160401b038111156200034457620003446200012c565b6200035c8162000355845462000297565b84620002d3565b602080601f8311600181146200039457600084156200037b5750858301515b600019600386901b1c1916600185901b1785556200031f565b600085815260208120601f198616915b82811015620003c557888601518255948401946001909101908401620003a4565b5085821015620003e45787850151600019600388901b60f8161c191681555b5050505050600190811b01905550565b612cc580620004046000396000f3fe608060405234801561001057600080fd5b506004361061023d5760003560e01c8063558a72971161013b578063a22cb465116100b8578063d2cae4a01161007c578063d2cae4a01461051b578063d547cfb71461052e578063e985e9c514610536578063fd1308a614610572578063fdba84971461057b57600080fd5b8063a22cb465146104bc578063b88d4fde146104cf578063c051f75f146104e2578063c87b56dd146104f5578063c8c8e1d01461050857600080fd5b806370a08231116100ff57806370a08231146104725780638150864d14610485578063833d1f551461049857806395d89b41146104ab5780639f181b5e146104b357600080fd5b8063558a72971461041357806355f804b3146104265780635ff96d11146104395780636352211e1461044c5780636a6278421461045f57600080fd5b8063204410c2116101c95780634441bbd91161018d5780634441bbd9146103a757806345795986146103ba5780634aa8fe39146103da5780634d5e1da6146103ed5780634fdef3901461040057600080fd5b8063204410c21461034857806323b872dd1461035b5780632c9de7551461036e57806342842e0e1461038157806342966c681461039457600080fd5b8063095ea7b311610210578063095ea7b3146102cb57806313e7c9d8146102e05780631714d9831461030357806319cc1ec4146103165780631fff9bb51461033557600080fd5b806301ffc9a7146102425780630435bd581461026a57806306fdde031461028b578063081812fc146102a0575b600080fd5b61025561025036600461201c565b610584565b60405190151581526020015b60405180910390f35b61027d61027836600461211a565b6105d6565b604051908152602001610261565b6102936108fd565b60405161026191906121d1565b6102b36102ae3660046121e4565b61098f565b6040516001600160a01b039091168152602001610261565b6102de6102d9366004612214565b6109b6565b005b6102556102ee36600461223e565b600c6020526000908152604090205460ff1681565b6102de61031136600461234c565b610acb565b600a546103239060ff1681565b60405160ff9091168152602001610261565b61027d610343366004612465565b610b86565b6102de61035636600461223e565b610ccc565b6102de610369366004612491565b610d1d565b61027d61037c3660046124cd565b610d4e565b6102de61038f366004612491565b611067565b6102de6103a23660046121e4565b611082565b6007546102b3906001600160a01b031681565b6103cd6103c8366004612509565b6110bd565b604051610261919061254f565b6102de6103e8366004612593565b611162565b6102de6103fb3660046121e4565b611202565b6102de61040e36600461261a565b6112c4565b6102de610421366004612656565b61135b565b6102de610434366004612692565b6113b5565b6102de6104473660046121e4565b6113f4565b6102b361045a3660046121e4565b611428565b6102de61046d36600461223e565b611488565b61027d61048036600461223e565b6114dd565b6006546102b3906001600160a01b031681565b6102de6104a63660046126c6565b611563565b6102936115a8565b61027d600b5481565b6102de6104ca366004612656565b6115b7565b6102de6104dd3660046126e1565b6115c2565b6102de6104f036600461223e565b6115f4565b6102936105033660046121e4565b611645565b6102de6105163660046121e4565b6116ac565b6102de61052936600461223e565b6116e0565b610293611731565b610255610544366004612750565b6001600160a01b03918216600090815260056020908152604080832093909416825291909152205460ff1690565b61027d60085481565b61027d60095481565b60006001600160e01b031982166380ac58cd60e01b14806105b557506001600160e01b03198216635b5e139f60e01b145b806105d057506301ffc9a760e01b6001600160e01b03198316145b92915050565b336000908152600c602052604081205460ff1661060e5760405162461bcd60e51b81526004016106059061277a565b60405180910390fd5b600a5460ff90811690841611156106675760405162461bcd60e51b815260206004820152601b60248201527f496e76616c696420636f6e747269627574696f6e20616d6f756e7400000000006044820152606401610605565b600e546001600160a01b0316632910306a868660ff87166106888383610b86565b61069291906127c0565b6040516001600160e01b031960e086901b168152600481019390935260ff90911660248301526044820152606401600060405180830381600087803b1580156106da57600080fd5b505af11580156106ee573d6000803e3d6000fd5b5050600e546040516359c2f9b560e01b81526004810189905260ff881660248201524260448201526001600160a01b0390911692506359c2f9b59150606401600060405180830381600087803b15801561074757600080fd5b505af115801561075b573d6000803e3d6000fd5b5050505060008360ff1660095461077291906127d3565b61077c90426127c0565b600e5460405163670b39ef60e11b815260ff88166004820152919250600091339189916001600160a01b039091169063ce1673de90602401600060405180830381865afa1580156107d1573d6000803e3d6000fd5b505050506040513d6000823e601f3d908101601f191682016040526107f991908101906127ea565b878760405160200161080f959493929190612860565b60408051601f1981840301815260065483830183526008548452825160c081019093529093506001600160a01b03169163f17325e7916020820190806108548d611428565b6001600160a01b03168152602001876001600160401b031681526020016001151581526020016000801b815260200186815260200160008152508152506040518263ffffffff1660e01b81526004016108ad91906128a2565b6020604051808303816000875af11580156108cc573d6000803e3d6000fd5b505050506040513d601f19601f820116820180604052508101906108f09190612924565b925050505b949350505050565b60606000805461090c9061293d565b80601f01602080910402602001604051908101604052809291908181526020018280546109389061293d565b80156109855780601f1061095a57610100808354040283529160200191610985565b820191906000526020600020905b81548152906001019060200180831161096857829003601f168201915b5050505050905090565b600061099a826117bf565b506000908152600460205260409020546001600160a01b031690565b60006109c182611428565b9050806001600160a01b0316836001600160a01b031603610a2e5760405162461bcd60e51b815260206004820152602160248201527f4552433732313a20617070726f76616c20746f2063757272656e74206f776e656044820152603960f91b6064820152608401610605565b336001600160a01b0382161480610a4a5750610a4a8133610544565b610abc5760405162461bcd60e51b815260206004820152603d60248201527f4552433732313a20617070726f76652063616c6c6572206973206e6f7420746f60448201527f6b656e206f776e6572206f7220617070726f76656420666f7220616c6c0000006064820152608401610605565b610ac6838361181e565b505050565b336000908152600c602052604090205460ff16610afa5760405162461bcd60e51b81526004016106059061277a565b60005b8451811015610b7f57610b76858281518110610b1b57610b1b612977565b6020026020010151858381518110610b3557610b35612977565b6020026020010151858481518110610b4f57610b4f612977565b6020026020010151858581518110610b6957610b69612977565b60200260200101516105d6565b50600101610afd565b5050505050565b600e54604051635acf48e360e01b81526004810184905260ff8316602482015260009182916001600160a01b0390911690635acf48e390604401602060405180830381865afa158015610bdd573d6000803e3d6000fd5b505050506040513d601f19601f82011682018060405250810190610c019190612924565b600e546040516375aace7560e01b81526004810187905260ff861660248201529192506000916001600160a01b03909116906375aace7590604401602060405180830381865afa158015610c59573d6000803e3d6000fd5b505050506040513d601f19601f82011682018060405250810190610c7d9190612924565b90506000610c8b834261298d565b9050600060095482610c9d91906129a0565b905080831015610cb45760009450505050506105d0565b6000610cc0828561298d565b98975050505050505050565b336000908152600c602052604090205460ff16610cfb5760405162461bcd60e51b81526004016106059061277a565b600e80546001600160a01b0319166001600160a01b0392909216919091179055565b610d27338261188c565b610d435760405162461bcd60e51b8152600401610605906129c2565b610ac683838361190a565b336000908152600c602052604081205460ff16610d7d5760405162461bcd60e51b81526004016106059061277a565b600a5460ff9081169083161115610dd65760405162461bcd60e51b815260206004820152601b60248201527f496e76616c696420636f6e747269627574696f6e20616d6f756e7400000000006044820152606401610605565b600e546001600160a01b0316632910306a858560ff8616610df78383610b86565b610e0191906127c0565b6040516001600160e01b031960e086901b168152600481019390935260ff90911660248301526044820152606401600060405180830381600087803b158015610e4957600080fd5b505af1158015610e5d573d6000803e3d6000fd5b5050600e546040516359c2f9b560e01b81526004810188905260ff871660248201524260448201526001600160a01b0390911692506359c2f9b59150606401600060405180830381600087803b158015610eb657600080fd5b505af1158015610eca573d6000803e3d6000fd5b5050505060008260ff16600954610ee191906127d3565b610eeb90426127c0565b600e5460405163670b39ef60e11b815260ff87166004820152919250600091339188916001600160a01b039091169063ce1673de90602401600060405180830381865afa158015610f40573d6000803e3d6000fd5b505050506040513d6000823e601f3d908101601f19168201604052610f6891908101906127ea565b86604051602001610f7c9493929190612a0f565b60408051601f1981840301815260065483830183526008548452825160c081019093529093506001600160a01b03169163f17325e791602082019080610fc18c611428565b6001600160a01b03168152602001876001600160401b031681526020016001151581526020016000801b815260200186815260200160008152508152506040518263ffffffff1660e01b815260040161101a91906128a2565b6020604051808303816000875af1158015611039573d6000803e3d6000fd5b505050506040513d601f19601f8201168201806040525081019061105d9190612924565b9695505050505050565b610ac6838383604051806020016040528060008152506115c2565b336000908152600c602052604090205460ff166110b15760405162461bcd60e51b81526004016106059061277a565b6110ba81611a6e565b50565b6060600082516001600160401b038111156110da576110da61204f565b604051908082528060200260200182016040528015611103578160200160208202803683370190505b50905060005b835181101561115a576111358585838151811061112857611128612977565b6020026020010151610b86565b82828151811061114757611147612977565b6020908102919091010152600101611109565b509392505050565b336000908152600c602052604090205460ff166111915760405162461bcd60e51b81526004016106059061277a565b60005b83518110156111fc576111f38482815181106111b2576111b2612977565b60200260200101518483815181106111cc576111cc612977565b60200260200101518484815181106111e6576111e6612977565b6020026020010151610d4e565b50600101611194565b50505050565b336000908152600c602052604090205460ff166112315760405162461bcd60e51b81526004016106059061277a565b60065460408051808201825260085481528151808301835284815260006020808301919091528083019182529251634692626760e01b81529151600483015251805160248301529091015160448201526001600160a01b0390911690634692626790606401600060405180830381600087803b1580156112b057600080fd5b505af1158015610b7f573d6000803e3d6000fd5b336000908152600c602052604090205460ff166112f35760405162461bcd60e51b81526004016106059061277a565b600e54604051638283a42960e01b81526001600160a01b0390911690638283a429906113259085908590600401612a59565b600060405180830381600087803b15801561133f57600080fd5b505af1158015611353573d6000803e3d6000fd5b505050505050565b336000908152600c602052604090205460ff1661138a5760405162461bcd60e51b81526004016106059061277a565b6001600160a01b03919091166000908152600c60205260409020805460ff1916911515919091179055565b336000908152600c602052604090205460ff166113e45760405162461bcd60e51b81526004016106059061277a565b600d6113f08282612aba565b5050565b336000908152600c602052604090205460ff166114235760405162461bcd60e51b81526004016106059061277a565b600855565b6000818152600260205260408120546001600160a01b0316806105d05760405162461bcd60e51b8152602060048201526018602482015277115490cdcc8c4e881a5b9d985b1a59081d1bdad95b88125160421b6044820152606401610605565b336000908152600c602052604090205460ff166114b75760405162461bcd60e51b81526004016106059061277a565b6001600b60008282546114ca91906127c0565b925050819055506110ba81600b54611b03565b60006001600160a01b0382166115475760405162461bcd60e51b815260206004820152602960248201527f4552433732313a2061646472657373207a65726f206973206e6f7420612076616044820152683634b21037bbb732b960b91b6064820152608401610605565b506001600160a01b031660009081526003602052604090205490565b336000908152600c602052604090205460ff166115925760405162461bcd60e51b81526004016106059061277a565b600a805460ff191660ff92909216919091179055565b60606001805461090c9061293d565b6113f0338383611c8e565b6115cc338361188c565b6115e85760405162461bcd60e51b8152600401610605906129c2565b6111fc84848484611d5c565b336000908152600c602052604090205460ff166116235760405162461bcd60e51b81526004016106059061277a565b600780546001600160a01b0319166001600160a01b0392909216919091179055565b6060611650826117bf565b600061165a611d8f565b9050600081511161167a57604051806020016040528060008152506116a5565b8061168484611d9e565b604051602001611695929190612b79565b6040516020818303038152906040525b9392505050565b336000908152600c602052604090205460ff166116db5760405162461bcd60e51b81526004016106059061277a565b600955565b336000908152600c602052604090205460ff1661170f5760405162461bcd60e51b81526004016106059061277a565b600680546001600160a01b0319166001600160a01b0392909216919091179055565b600d805461173e9061293d565b80601f016020809104026020016040519081016040528092919081815260200182805461176a9061293d565b80156117b75780601f1061178c576101008083540402835291602001916117b7565b820191906000526020600020905b81548152906001019060200180831161179a57829003601f168201915b505050505081565b6000818152600260205260409020546001600160a01b03166110ba5760405162461bcd60e51b8152602060048201526018602482015277115490cdcc8c4e881a5b9d985b1a59081d1bdad95b88125160421b6044820152606401610605565b600081815260046020526040902080546001600160a01b0319166001600160a01b038416908117909155819061185382611428565b6001600160a01b03167f8c5be1e5ebec7d5bd14f71427d1e84f3dd0314c0f7b2291e5b200ac8c7c3b92560405160405180910390a45050565b60008061189883611428565b9050806001600160a01b0316846001600160a01b031614806118df57506001600160a01b0380821660009081526005602090815260408083209388168352929052205460ff165b806108f55750836001600160a01b03166118f88461098f565b6001600160a01b031614949350505050565b826001600160a01b031661191d82611428565b6001600160a01b0316146119435760405162461bcd60e51b815260040161060590612ba8565b6001600160a01b0382166119a55760405162461bcd60e51b8152602060048201526024808201527f4552433732313a207472616e7366657220746f20746865207a65726f206164646044820152637265737360e01b6064820152608401610605565b826001600160a01b03166119b882611428565b6001600160a01b0316146119de5760405162461bcd60e51b815260040161060590612ba8565b600081815260046020908152604080832080546001600160a01b03199081169091556001600160a01b0387811680865260038552838620805460001901905590871680865283862080546001019055868652600290945282852080549092168417909155905184937fddf252ad1be2c89b69c2b068fc378daa952ba7f163c4a11628f55a4df523b3ef91a4505050565b6000611a7982611428565b9050611a8482611428565b600083815260046020908152604080832080546001600160a01b03199081169091556001600160a01b0385168085526003845282852080546000190190558785526002909352818420805490911690555192935084927fddf252ad1be2c89b69c2b068fc378daa952ba7f163c4a11628f55a4df523b3ef908390a45050565b6001600160a01b038216611b595760405162461bcd60e51b815260206004820181905260248201527f4552433732313a206d696e7420746f20746865207a65726f20616464726573736044820152606401610605565b6000818152600260205260409020546001600160a01b031615611bbe5760405162461bcd60e51b815260206004820152601c60248201527f4552433732313a20746f6b656e20616c7265616479206d696e746564000000006044820152606401610605565b6000818152600260205260409020546001600160a01b031615611c235760405162461bcd60e51b815260206004820152601c60248201527f4552433732313a20746f6b656e20616c7265616479206d696e746564000000006044820152606401610605565b6001600160a01b038216600081815260036020908152604080832080546001019055848352600290915280822080546001600160a01b0319168417905551839291907fddf252ad1be2c89b69c2b068fc378daa952ba7f163c4a11628f55a4df523b3ef908290a45050565b816001600160a01b0316836001600160a01b031603611cef5760405162461bcd60e51b815260206004820152601960248201527f4552433732313a20617070726f766520746f2063616c6c6572000000000000006044820152606401610605565b6001600160a01b03838116600081815260056020908152604080832094871680845294825291829020805460ff191686151590811790915591519182527f17307eab39ab6107e8899845ad3d59bd9653f200f220920489ca2b5937696c31910160405180910390a3505050565b611d6784848461190a565b611d7384848484611e30565b6111fc5760405162461bcd60e51b815260040161060590612bed565b6060600d805461090c9061293d565b60606000611dab83611f2e565b60010190506000816001600160401b03811115611dca57611dca61204f565b6040519080825280601f01601f191660200182016040528015611df4576020820181803683370190505b5090508181016020015b600019016f181899199a1a9b1b9c1cb0b131b232b360811b600a86061a8153600a8504945084611dfe57509392505050565b60006001600160a01b0384163b15611f2657604051630a85bd0160e11b81526001600160a01b0385169063150b7a0290611e74903390899088908890600401612c3f565b6020604051808303816000875af1925050508015611eaf575060408051601f3d908101601f19168201909252611eac91810190612c72565b60015b611f0c573d808015611edd576040519150601f19603f3d011682016040523d82523d6000602084013e611ee2565b606091505b508051600003611f045760405162461bcd60e51b815260040161060590612bed565b805181602001fd5b6001600160e01b031916630a85bd0160e11b1490506108f5565b5060016108f5565b60008072184f03e93ff9f4daa797ed6e38ed64bf6a1f0160401b8310611f6d5772184f03e93ff9f4daa797ed6e38ed64bf6a1f0160401b830492506040015b6d04ee2d6d415b85acef81000000008310611f99576d04ee2d6d415b85acef8100000000830492506020015b662386f26fc100008310611fb757662386f26fc10000830492506010015b6305f5e1008310611fcf576305f5e100830492506008015b6127108310611fe357612710830492506004015b60648310611ff5576064830492506002015b600a83106105d05760010192915050565b6001600160e01b0319811681146110ba57600080fd5b60006020828403121561202e57600080fd5b81356116a581612006565b803560ff8116811461204a57600080fd5b919050565b634e487b7160e01b600052604160045260246000fd5b604051601f8201601f191681016001600160401b038111828210171561208d5761208d61204f565b604052919050565b60006001600160401b038211156120ae576120ae61204f565b50601f01601f191660200190565b60006120cf6120ca84612095565b612065565b90508281528383830111156120e357600080fd5b828260208301376000602084830101529392505050565b600082601f83011261210b57600080fd5b6116a5838335602085016120bc565b6000806000806080858703121561213057600080fd5b8435935061214060208601612039565b925061214e60408601612039565b915060608501356001600160401b0381111561216957600080fd5b612175878288016120fa565b91505092959194509250565b60005b8381101561219c578181015183820152602001612184565b50506000910152565b600081518084526121bd816020860160208601612181565b601f01601f19169290920160200192915050565b6020815260006116a560208301846121a5565b6000602082840312156121f657600080fd5b5035919050565b80356001600160a01b038116811461204a57600080fd5b6000806040838503121561222757600080fd5b612230836121fd565b946020939093013593505050565b60006020828403121561225057600080fd5b6116a5826121fd565b60006001600160401b038211156122725761227261204f565b5060051b60200190565b600082601f83011261228d57600080fd5b8135602061229d6120ca83612259565b8083825260208201915060208460051b8701019350868411156122bf57600080fd5b602086015b848110156122db57803583529183019183016122c4565b509695505050505050565b600082601f8301126122f757600080fd5b813560206123076120ca83612259565b8083825260208201915060208460051b87010193508684111561232957600080fd5b602086015b848110156122db5761233f81612039565b835291830191830161232e565b6000806000806080858703121561236257600080fd5b84356001600160401b038082111561237957600080fd5b6123858883890161227c565b955060209150818701358181111561239c57600080fd5b6123a889828a016122e6565b9550506040870135818111156123bd57600080fd5b6123c989828a016122e6565b9450506060870135818111156123de57600080fd5b8701601f810189136123ef57600080fd5b80356123fd6120ca82612259565b81815260059190911b8201840190848101908b83111561241c57600080fd5b8584015b83811015612454578035868111156124385760008081fd5b6124468e89838901016120fa565b845250918601918601612420565b50989b979a50959850505050505050565b6000806040838503121561247857600080fd5b8235915061248860208401612039565b90509250929050565b6000806000606084860312156124a657600080fd5b6124af846121fd565b92506124bd602085016121fd565b9150604084013590509250925092565b6000806000606084860312156124e257600080fd5b833592506124f260208501612039565b915061250060408501612039565b90509250925092565b6000806040838503121561251c57600080fd5b8235915060208301356001600160401b0381111561253957600080fd5b612545858286016122e6565b9150509250929050565b6020808252825182820181905260009190848201906040850190845b818110156125875783518352928401929184019160010161256b565b50909695505050505050565b6000806000606084860312156125a857600080fd5b83356001600160401b03808211156125bf57600080fd5b6125cb8783880161227c565b945060208601359150808211156125e157600080fd5b6125ed878388016122e6565b9350604086013591508082111561260357600080fd5b50612610868287016122e6565b9150509250925092565b6000806040838503121561262d57600080fd5b8235915060208301356001600160401b0381111561264a57600080fd5b612545858286016120fa565b6000806040838503121561266957600080fd5b612672836121fd565b91506020830135801515811461268757600080fd5b809150509250929050565b6000602082840312156126a457600080fd5b81356001600160401b038111156126ba57600080fd5b6108f5848285016120fa565b6000602082840312156126d857600080fd5b6116a582612039565b600080600080608085870312156126f757600080fd5b612700856121fd565b935061270e602086016121fd565b92506040850135915060608501356001600160401b0381111561273057600080fd5b8501601f8101871361274157600080fd5b612175878235602084016120bc565b6000806040838503121561276357600080fd5b61276c836121fd565b9150612488602084016121fd565b60208082526016908201527521b0b63632b91034b9903737ba1037b832b930ba37b960511b604082015260600190565b634e487b7160e01b600052601160045260246000fd5b808201808211156105d0576105d06127aa565b80820281158282048414176105d0576105d06127aa565b6000602082840312156127fc57600080fd5b81516001600160401b0381111561281257600080fd5b8201601f8101841361282357600080fd5b80516128316120ca82612095565b81815285602083850101111561284657600080fd5b612857826020830160208601612181565b95945050505050565b60018060a01b038616815284602082015260a06040820152600061288760a08301866121a5565b60ff851660608401528281036080840152610cc081856121a5565b60208152815160208201526000602083015160408084015260018060a01b0381511660608401526001600160401b0360208201511660808401526040810151151560a0840152606081015160c0840152608081015160c060e085015261290c6101208501826121a5565b905060a0820151610100850152809250505092915050565b60006020828403121561293657600080fd5b5051919050565b600181811c9082168061295157607f821691505b60208210810361297157634e487b7160e01b600052602260045260246000fd5b50919050565b634e487b7160e01b600052603260045260246000fd5b818103818111156105d0576105d06127aa565b6000826129bd57634e487b7160e01b600052601260045260246000fd5b500490565b6020808252602d908201527f4552433732313a2063616c6c6572206973206e6f7420746f6b656e206f776e6560408201526c1c881bdc88185c1c1c9bdd9959609a1b606082015260800190565b60018060a01b038516815283602082015260a060408201526000612a3660a08301856121a5565b60ff93909316606083015250808203608090910152600081526020019392505050565b8281526040602082015260006108f560408301846121a5565b601f821115610ac6576000816000526020600020601f850160051c81016020861015612a9b5750805b601f850160051c820191505b8181101561135357828155600101612aa7565b81516001600160401b03811115612ad357612ad361204f565b612ae781612ae1845461293d565b84612a72565b602080601f831160018114612b1c5760008415612b045750858301515b600019600386901b1c1916600185901b178555611353565b600085815260208120601f198616915b82811015612b4b57888601518255948401946001909101908401612b2c565b5085821015612b695787850151600019600388901b60f8161c191681555b5050505050600190811b01905550565b60008351612b8b818460208801612181565b835190830190612b9f818360208801612181565b01949350505050565b60208082526025908201527f4552433732313a207472616e736665722066726f6d20696e636f72726563742060408201526437bbb732b960d91b606082015260800190565b60208082526032908201527f4552433732313a207472616e7366657220746f206e6f6e20455243373231526560408201527131b2b4bb32b91034b6b83632b6b2b73a32b960711b606082015260800190565b6001600160a01b038581168252841660208201526040810183905260806060820181905260009061105d908301846121a5565b600060208284031215612c8457600080fd5b81516116a58161200656fea2646970667358221220efec7fbf2d3b5ab2d6d5e291835b76db3d7391941d168c5325c81b6ce53c29bf64736f6c63430008170033",
  "devdoc": {
    "events": {
      "Approval(address,address,uint256)": {
        "details": "Emitted when `owner` enables `approved` to manage the `tokenId` token."
      },
      "ApprovalForAll(address,address,bool)": {
        "details": "Emitted when `owner` enables or disables (`approved`) `operator` to manage all of its assets."
      },
      "Transfer(address,address,uint256)": {
        "details": "Emitted when `tokenId` token is transferred from `from` to `to`."
      }
    },
    "kind": "dev",
    "methods": {
      "approve(address,uint256)": {
        "details": "See {IERC721-approve}."
      },
      "balanceOf(address)": {
        "details": "See {IERC721-balanceOf}."
      },
      "getApproved(uint256)": {
        "details": "See {IERC721-getApproved}."
      },
      "isApprovedForAll(address,address)": {
        "details": "See {IERC721-isApprovedForAll}."
      },
      "name()": {
        "details": "See {IERC721Metadata-name}."
      },
      "ownerOf(uint256)": {
        "details": "See {IERC721-ownerOf}."
      },
      "safeTransferFrom(address,address,uint256)": {
        "details": "See {IERC721-safeTransferFrom}."
      },
      "safeTransferFrom(address,address,uint256,bytes)": {
        "details": "See {IERC721-safeTransferFrom}."
      },
      "setApprovalForAll(address,bool)": {
        "details": "See {IERC721-setApprovalForAll}."
      },
      "supportsInterface(bytes4)": {
        "details": "See {IERC165-supportsInterface}."
      },
      "symbol()": {
        "details": "See {IERC721Metadata-symbol}."
      },
      "tokenURI(uint256)": {
        "details": "See {IERC721Metadata-tokenURI}."
      },
      "transferFrom(address,address,uint256)": {
        "details": "See {IERC721-transferFrom}."
      }
    },
    "version": 1
  },
  "userdoc": {
    "kind": "user",
    "methods": {},
    "version": 1
  },
  "storageLayout": {
    "storage": [
      {
        "astId": 634,
        "contract": "contracts/ContributionsNFT.sol:ContributionsNFT",
        "label": "_name",
        "offset": 0,
        "slot": "0",
        "type": "t_string_storage"
      },
      {
        "astId": 636,
        "contract": "contracts/ContributionsNFT.sol:ContributionsNFT",
        "label": "_symbol",
        "offset": 0,
        "slot": "1",
        "type": "t_string_storage"
      },
      {
        "astId": 640,
        "contract": "contracts/ContributionsNFT.sol:ContributionsNFT",
        "label": "_owners",
        "offset": 0,
        "slot": "2",
        "type": "t_mapping(t_uint256,t_address)"
      },
      {
        "astId": 644,
        "contract": "contracts/ContributionsNFT.sol:ContributionsNFT",
        "label": "_balances",
        "offset": 0,
        "slot": "3",
        "type": "t_mapping(t_address,t_uint256)"
      },
      {
        "astId": 648,
        "contract": "contracts/ContributionsNFT.sol:ContributionsNFT",
        "label": "_tokenApprovals",
        "offset": 0,
        "slot": "4",
        "type": "t_mapping(t_uint256,t_address)"
      },
      {
        "astId": 654,
        "contract": "contracts/ContributionsNFT.sol:ContributionsNFT",
        "label": "_operatorApprovals",
        "offset": 0,
        "slot": "5",
        "type": "t_mapping(t_address,t_mapping(t_address,t_bool))"
      },
      {
        "astId": 3450,
        "contract": "contracts/ContributionsNFT.sol:ContributionsNFT",
        "label": "eas",
        "offset": 0,
        "slot": "6",
        "type": "t_address"
      },
      {
        "astId": 3453,
        "contract": "contracts/ContributionsNFT.sol:ContributionsNFT",
        "label": "schemaRegistry",
        "offset": 0,
        "slot": "7",
        "type": "t_address"
      },
      {
        "astId": 3455,
        "contract": "contracts/ContributionsNFT.sol:ContributionsNFT",
        "label": "schemaID",
        "offset": 0,
        "slot": "8",
        "type": "t_bytes32"
      },
      {
        "astId": 3458,
        "contract": "contracts/ContributionsNFT.sol:ContributionsNFT",
        "label": "contributionDecayTime",
        "offset": 0,
        "slot": "9",
        "type": "t_uint256"
      },
      {
        "astId": 3461,
        "contract": "contracts/ContributionsNFT.sol:ContributionsNFT",
        "label": "maxContributionAmount",
        "offset": 0,
        "slot": "10",
        "type": "t_uint8"
      },
      {
        "astId": 3463,
        "contract": "contracts/ContributionsNFT.sol:ContributionsNFT",
        "label": "tokenCount",
        "offset": 0,
        "slot": "11",
        "type": "t_uint256"
      },
      {
        "astId": 3467,
        "contract": "contracts/ContributionsNFT.sol:ContributionsNFT",
        "label": "operators",
        "offset": 0,
        "slot": "12",
        "type": "t_mapping(t_address,t_bool)"
      },
      {
        "astId": 3469,
        "contract": "contracts/ContributionsNFT.sol:ContributionsNFT",
        "label": "baseTokenURI",
        "offset": 0,
        "slot": "13",
        "type": "t_string_storage"
      },
      {
        "astId": 3472,
        "contract": "contracts/ContributionsNFT.sol:ContributionsNFT",
        "label": "contribuData",
        "offset": 0,
        "slot": "14",
        "type": "t_contract(ContribuData)3445"
      }
    ],
    "types": {
      "t_address": {
        "encoding": "inplace",
        "label": "address",
        "numberOfBytes": "20"
      },
      "t_bool": {
        "encoding": "inplace",
        "label": "bool",
        "numberOfBytes": "1"
      },
      "t_bytes32": {
        "encoding": "inplace",
        "label": "bytes32",
        "numberOfBytes": "32"
      },
      "t_contract(ContribuData)3445": {
        "encoding": "inplace",
        "label": "contract ContribuData",
        "numberOfBytes": "20"
      },
      "t_mapping(t_address,t_bool)": {
        "encoding": "mapping",
        "key": "t_address",
        "label": "mapping(address => bool)",
        "numberOfBytes": "32",
        "value": "t_bool"
      },
      "t_mapping(t_address,t_mapping(t_address,t_bool))": {
        "encoding": "mapping",
        "key": "t_address",
        "label": "mapping(address => mapping(address => bool))",
        "numberOfBytes": "32",
        "value": "t_mapping(t_address,t_bool)"
      },
      "t_mapping(t_address,t_uint256)": {
        "encoding": "mapping",
        "key": "t_address",
        "label": "mapping(address => uint256)",
        "numberOfBytes": "32",
        "value": "t_uint256"
      },
      "t_mapping(t_uint256,t_address)": {
        "encoding": "mapping",
        "key": "t_uint256",
        "label": "mapping(uint256 => address)",
        "numberOfBytes": "32",
        "value": "t_address"
      },
      "t_string_storage": {
        "encoding": "bytes",
        "label": "string",
        "numberOfBytes": "32"
      },
      "t_uint256": {
        "encoding": "inplace",
        "label": "uint256",
        "numberOfBytes": "32"
      },
      "t_uint8": {
        "encoding": "inplace",
        "label": "uint8",
        "numberOfBytes": "1"
      }
    }
  }
}