{
  "address": "0x87DFa5646f097F52448A93f273AB835974d72643",
  "abi": [
    {
      "anonymous": false,
      "inputs": [
        {
          "indexed": true,
          "internalType": "address",
          "name": "previousOwner",
          "type": "address"
        },
        {
          "indexed": true,
          "internalType": "address",
          "name": "newOwner",
          "type": "address"
        }
      ],
      "name": "OwnershipTransferred",
      "type": "event"
    },
    {
      "inputs": [],
      "name": "contribuAddress",
      "outputs": [
        {
          "internalType": "address",
          "name": "",
          "type": "address"
        }
      ],
      "stateMutability": "view",
      "type": "function"
    },
    {
      "inputs": [
        {
          "internalType": "uint256",
          "name": "nftId",
          "type": "uint256"
        },
        {
          "internalType": "uint8",
          "name": "contributionType",
          "type": "uint8"
        }
      ],
      "name": "contributionAmounts",
      "outputs": [
        {
          "internalType": "uint256",
          "name": "amount",
          "type": "uint256"
        }
      ],
      "stateMutability": "view",
      "type": "function"
    },
    {
      "inputs": [
        {
          "internalType": "uint256",
          "name": "nftId",
          "type": "uint256"
        },
        {
          "internalType": "uint8",
          "name": "contributionType",
          "type": "uint8"
        }
      ],
      "name": "contributionTimestamps",
      "outputs": [
        {
          "internalType": "uint256",
          "name": "timestamp",
          "type": "uint256"
        }
      ],
      "stateMutability": "view",
      "type": "function"
    },
    {
      "inputs": [
        {
          "internalType": "uint256",
          "name": "nftId",
          "type": "uint256"
        },
        {
          "internalType": "uint8",
          "name": "contributionType",
          "type": "uint8"
        }
      ],
      "name": "getContributionAmounts",
      "outputs": [
        {
          "internalType": "uint256",
          "name": "amount",
          "type": "uint256"
        }
      ],
      "stateMutability": "view",
      "type": "function"
    },
    {
      "inputs": [
        {
          "internalType": "uint256",
          "name": "nftId",
          "type": "uint256"
        },
        {
          "internalType": "uint8",
          "name": "contributionType",
          "type": "uint8"
        }
      ],
      "name": "getContributionTimestamps",
      "outputs": [
        {
          "internalType": "uint256",
          "name": "timestamp",
          "type": "uint256"
        }
      ],
      "stateMutability": "view",
      "type": "function"
    },
    {
      "inputs": [
        {
          "internalType": "uint256",
          "name": "id",
          "type": "uint256"
        }
      ],
      "name": "getContributionTypes",
      "outputs": [
        {
          "internalType": "string",
          "name": "name",
          "type": "string"
        }
      ],
      "stateMutability": "view",
      "type": "function"
    },
    {
      "inputs": [],
      "name": "owner",
      "outputs": [
        {
          "internalType": "address",
          "name": "",
          "type": "address"
        }
      ],
      "stateMutability": "view",
      "type": "function"
    },
    {
      "inputs": [],
      "name": "renounceOwnership",
      "outputs": [],
      "stateMutability": "nonpayable",
      "type": "function"
    },
    {
      "inputs": [
        {
          "internalType": "address",
          "name": "contribuAddress_",
          "type": "address"
        }
      ],
      "name": "setContribuAddress",
      "outputs": [],
      "stateMutability": "nonpayable",
      "type": "function"
    },
    {
      "inputs": [
        {
          "internalType": "uint256",
          "name": "nftId",
          "type": "uint256"
        },
        {
          "internalType": "uint8",
          "name": "contributionType",
          "type": "uint8"
        },
        {
          "internalType": "uint256",
          "name": "amount",
          "type": "uint256"
        }
      ],
      "name": "setContributionAmounts",
      "outputs": [],
      "stateMutability": "nonpayable",
      "type": "function"
    },
    {
      "inputs": [
        {
          "internalType": "uint256",
          "name": "nftId",
          "type": "uint256"
        },
        {
          "internalType": "uint8",
          "name": "contributionType",
          "type": "uint8"
        },
        {
          "internalType": "uint256",
          "name": "timestamp",
          "type": "uint256"
        }
      ],
      "name": "setContributionTimestamps",
      "outputs": [],
      "stateMutability": "nonpayable",
      "type": "function"
    },
    {
      "inputs": [
        {
          "internalType": "uint256",
          "name": "id",
          "type": "uint256"
        },
        {
          "internalType": "string",
          "name": "name",
          "type": "string"
        }
      ],
      "name": "setContributionTypes",
      "outputs": [],
      "stateMutability": "nonpayable",
      "type": "function"
    },
    {
      "inputs": [
        {
          "internalType": "address",
          "name": "newOwner",
          "type": "address"
        }
      ],
      "name": "transferOwnership",
      "outputs": [],
      "stateMutability": "nonpayable",
      "type": "function"
    }
  ],
  "transactionHash": "0xa8a702cbd171b5e7be63544a37d19f06189ef3f29d53d93f276360c6163bcd0e",
  "args": [],
  "numDeployments": 1,
  "solcInputHash": "d3cb72d8686061485f901120c0c6a55c",
  "bytecode": "0x608060405234801561001057600080fd5b5061001a3361001f565b61006f565b600080546001600160a01b038381166001600160a01b0319831681178455604051919092169283917f8be0079c531659141344cd1fd0a4f28419497f9722a3daafe3b4186f6b6457e09190a35050565b6108c88061007e6000396000f3fe608060405234801561001057600080fd5b50600436106100cf5760003560e01c80638283a4291161008c578063c94ab84d11610066578063c94ab84d1461020a578063ce1673de1461021d578063d135323d1461023d578063f2fde38b1461026857600080fd5b80638283a429146101a25780638da5cb5b146101b55780639c76769a146101da57600080fd5b80632910306a146100d457806359c2f9b5146100e95780635acf48e3146100fc578063642af1851461013f578063715018a61461016a57806375aace7514610172575b600080fd5b6100e76100e236600461054e565b61027b565b005b6100e76100f736600461054e565b6102ce565b61012c61010a366004610583565b600091825260016020908152604080842060ff93909316845291905290205490565b6040519081526020015b60405180910390f35b61012c61014d366004610583565b600160209081526000928352604080842090915290825290205481565b6100e7610318565b61012c610180366004610583565b600091825260026020908152604080842060ff93909316845291905290205490565b6100e76101b03660046105c5565b61032c565b6000546001600160a01b03165b6040516001600160a01b039091168152602001610136565b6100e76101e8366004610680565b600480546001600160a01b0319166001600160a01b0392909216919091179055565b6004546101c2906001600160a01b031681565b61023061022b3660046106b0565b610373565b60405161013691906106c9565b61012c61024b366004610583565b600260209081526000928352604080842090915290825290205481565b6100e7610276366004610680565b610415565b6004546001600160a01b031633146102ae5760405162461bcd60e51b81526004016102a590610718565b60405180910390fd5b600092835260026020908152604080852060ff9094168552929052912055565b6004546001600160a01b031633146102f85760405162461bcd60e51b81526004016102a590610718565b600092835260016020908152604080852060ff9094168552929052912055565b61032061048e565b61032a60006104e8565b565b6004546001600160a01b031633146103565760405162461bcd60e51b81526004016102a590610718565b600082815260036020526040902061036e82826107d2565b505050565b600081815260036020526040902080546060919061039090610748565b80601f01602080910402602001604051908101604052809291908181526020018280546103bc90610748565b80156104095780601f106103de57610100808354040283529160200191610409565b820191906000526020600020905b8154815290600101906020018083116103ec57829003601f168201915b50505050509050919050565b61041d61048e565b6001600160a01b0381166104825760405162461bcd60e51b815260206004820152602660248201527f4f776e61626c653a206e6577206f776e657220697320746865207a65726f206160448201526564647265737360d01b60648201526084016102a5565b61048b816104e8565b50565b6000546001600160a01b0316331461032a5760405162461bcd60e51b815260206004820181905260248201527f4f776e61626c653a2063616c6c6572206973206e6f7420746865206f776e657260448201526064016102a5565b600080546001600160a01b038381166001600160a01b0319831681178455604051919092169283917f8be0079c531659141344cd1fd0a4f28419497f9722a3daafe3b4186f6b6457e09190a35050565b803560ff8116811461054957600080fd5b919050565b60008060006060848603121561056357600080fd5b8335925061057360208501610538565b9150604084013590509250925092565b6000806040838503121561059657600080fd5b823591506105a660208401610538565b90509250929050565b634e487b7160e01b600052604160045260246000fd5b600080604083850312156105d857600080fd5b82359150602083013567ffffffffffffffff808211156105f757600080fd5b818501915085601f83011261060b57600080fd5b81358181111561061d5761061d6105af565b604051601f8201601f19908116603f01168101908382118183101715610645576106456105af565b8160405282815288602084870101111561065e57600080fd5b8260208601602083013760006020848301015280955050505050509250929050565b60006020828403121561069257600080fd5b81356001600160a01b03811681146106a957600080fd5b9392505050565b6000602082840312156106c257600080fd5b5035919050565b60006020808352835180602085015260005b818110156106f7578581018301518582016040015282016106db565b506000604082860101526040601f19601f8301168501019250505092915050565b60208082526016908201527543616c6c6572206973206e6f7420436f6e747269627560501b604082015260600190565b600181811c9082168061075c57607f821691505b60208210810361077c57634e487b7160e01b600052602260045260246000fd5b50919050565b601f82111561036e576000816000526020600020601f850160051c810160208610156107ab5750805b601f850160051c820191505b818110156107ca578281556001016107b7565b505050505050565b815167ffffffffffffffff8111156107ec576107ec6105af565b610800816107fa8454610748565b84610782565b602080601f831160018114610835576000841561081d5750858301515b600019600386901b1c1916600185901b1785556107ca565b600085815260208120601f198616915b8281101561086457888601518255948401946001909101908401610845565b50858210156108825787850151600019600388901b60f8161c191681555b5050505050600190811b0190555056fea2646970667358221220acf0100add64491ea398ee3dbefc487e3584f7ca15ac560309b664715385691164736f6c63430008170033",
  "devdoc": {
    "kind": "dev",
    "methods": {
      "owner()": {
        "details": "Returns the address of the current owner."
      },
      "renounceOwnership()": {
        "details": "Leaves the contract without owner. It will not be possible to call `onlyOwner` functions. Can only be called by the current owner. NOTE: Renouncing ownership will leave the contract without an owner, thereby disabling any functionality that is only available to the owner."
      },
      "transferOwnership(address)": {
        "details": "Transfers ownership of the contract to a new account (`newOwner`). Can only be called by the current owner."
      }
    },
    "version": 1
  },
  "userdoc": {
    "kind": "user",
    "methods": {},
    "version": 1
  },
  "storageLayout": {
    "storage": [
      {
        "astId": 503,
        "contract": "contracts/ContributionsNFT.sol:ContribuData",
        "label": "_owner",
        "offset": 0,
        "slot": "0",
        "type": "t_address"
      },
      {
        "astId": 3310,
        "contract": "contracts/ContributionsNFT.sol:ContribuData",
        "label": "contributionTimestamps",
        "offset": 0,
        "slot": "1",
        "type": "t_mapping(t_uint256,t_mapping(t_uint8,t_uint256))"
      },
      {
        "astId": 3316,
        "contract": "contracts/ContributionsNFT.sol:ContribuData",
        "label": "contributionAmounts",
        "offset": 0,
        "slot": "2",
        "type": "t_mapping(t_uint256,t_mapping(t_uint8,t_uint256))"
      },
      {
        "astId": 3320,
        "contract": "contracts/ContributionsNFT.sol:ContribuData",
        "label": "contributionTypes",
        "offset": 0,
        "slot": "3",
        "type": "t_mapping(t_uint256,t_string_storage)"
      },
      {
        "astId": 3322,
        "contract": "contracts/ContributionsNFT.sol:ContribuData",
        "label": "contribuAddress",
        "offset": 0,
        "slot": "4",
        "type": "t_address"
      }
    ],
    "types": {
      "t_address": {
        "encoding": "inplace",
        "label": "address",
        "numberOfBytes": "20"
      },
      "t_mapping(t_uint256,t_mapping(t_uint8,t_uint256))": {
        "encoding": "mapping",
        "key": "t_uint256",
        "label": "mapping(uint256 => mapping(uint8 => uint256))",
        "numberOfBytes": "32",
        "value": "t_mapping(t_uint8,t_uint256)"
      },
      "t_mapping(t_uint256,t_string_storage)": {
        "encoding": "mapping",
        "key": "t_uint256",
        "label": "mapping(uint256 => string)",
        "numberOfBytes": "32",
        "value": "t_string_storage"
      },
      "t_mapping(t_uint8,t_uint256)": {
        "encoding": "mapping",
        "key": "t_uint8",
        "label": "mapping(uint8 => uint256)",
        "numberOfBytes": "32",
        "value": "t_uint256"
      },
      "t_string_storage": {
        "encoding": "bytes",
        "label": "string",
        "numberOfBytes": "32"
      },
      "t_uint256": {
        "encoding": "inplace",
        "label": "uint256",
        "numberOfBytes": "32"
      },
      "t_uint8": {
        "encoding": "inplace",
        "label": "uint8",
        "numberOfBytes": "1"
      }
    }
  }
}